{
  "contractName": "Customer",
  "abi": [
    {
      "inputs": [
        {
          "internalType": "address",
          "name": "crossChainMessenger",
          "type": "address"
        }
      ],
      "stateMutability": "nonpayable",
      "type": "constructor"
    },
    {
      "inputs": [],
      "name": "NotCrossChainCall",
      "type": "error"
    },
    {
      "anonymous": false,
      "inputs": [
        {
          "indexed": true,
          "internalType": "uint256",
          "name": "_id",
          "type": "uint256"
        }
      ],
      "name": "Created",
      "type": "event"
    },
    {
      "anonymous": false,
      "inputs": [
        {
          "indexed": true,
          "internalType": "bytes32",
          "name": "role",
          "type": "bytes32"
        },
        {
          "indexed": true,
          "internalType": "bytes32",
          "name": "previousAdminRole",
          "type": "bytes32"
        },
        {
          "indexed": true,
          "internalType": "bytes32",
          "name": "newAdminRole",
          "type": "bytes32"
        }
      ],
      "name": "RoleAdminChanged",
      "type": "event"
    },
    {
      "anonymous": false,
      "inputs": [
        {
          "indexed": true,
          "internalType": "bytes32",
          "name": "role",
          "type": "bytes32"
        },
        {
          "indexed": true,
          "internalType": "address",
          "name": "account",
          "type": "address"
        },
        {
          "indexed": true,
          "internalType": "address",
          "name": "sender",
          "type": "address"
        }
      ],
      "name": "RoleGranted",
      "type": "event"
    },
    {
      "anonymous": false,
      "inputs": [
        {
          "indexed": true,
          "internalType": "bytes32",
          "name": "role",
          "type": "bytes32"
        },
        {
          "indexed": true,
          "internalType": "address",
          "name": "account",
          "type": "address"
        },
        {
          "indexed": true,
          "internalType": "address",
          "name": "sender",
          "type": "address"
        }
      ],
      "name": "RoleRevoked",
      "type": "event"
    },
    {
      "inputs": [],
      "name": "CROSSCHAIN_ALIAS",
      "outputs": [
        {
          "internalType": "bytes32",
          "name": "",
          "type": "bytes32"
        }
      ],
      "stateMutability": "view",
      "type": "function",
      "constant": true
    },
    {
      "inputs": [],
      "name": "DEFAULT_ADMIN_ROLE",
      "outputs": [
        {
          "internalType": "bytes32",
          "name": "",
          "type": "bytes32"
        }
      ],
      "stateMutability": "view",
      "type": "function",
      "constant": true
    },
    {
      "inputs": [],
      "name": "OWNER",
      "outputs": [
        {
          "internalType": "bytes32",
          "name": "",
          "type": "bytes32"
        }
      ],
      "stateMutability": "view",
      "type": "function",
      "constant": true
    },
    {
      "inputs": [
        {
          "internalType": "bytes32",
          "name": "role",
          "type": "bytes32"
        }
      ],
      "name": "getRoleAdmin",
      "outputs": [
        {
          "internalType": "bytes32",
          "name": "",
          "type": "bytes32"
        }
      ],
      "stateMutability": "view",
      "type": "function",
      "constant": true
    },
    {
      "inputs": [
        {
          "internalType": "bytes32",
          "name": "role",
          "type": "bytes32"
        },
        {
          "internalType": "address",
          "name": "account",
          "type": "address"
        }
      ],
      "name": "grantRole",
      "outputs": [],
      "stateMutability": "nonpayable",
      "type": "function"
    },
    {
      "inputs": [
        {
          "internalType": "bytes32",
          "name": "role",
          "type": "bytes32"
        },
        {
          "internalType": "address",
          "name": "account",
          "type": "address"
        }
      ],
      "name": "hasRole",
      "outputs": [
        {
          "internalType": "bool",
          "name": "",
          "type": "bool"
        }
      ],
      "stateMutability": "view",
      "type": "function",
      "constant": true
    },
    {
      "inputs": [
        {
          "internalType": "bytes32",
          "name": "role",
          "type": "bytes32"
        },
        {
          "internalType": "address",
          "name": "account",
          "type": "address"
        }
      ],
      "name": "renounceRole",
      "outputs": [],
      "stateMutability": "nonpayable",
      "type": "function"
    },
    {
      "inputs": [
        {
          "internalType": "bytes32",
          "name": "role",
          "type": "bytes32"
        },
        {
          "internalType": "address",
          "name": "account",
          "type": "address"
        }
      ],
      "name": "revokeRole",
      "outputs": [],
      "stateMutability": "nonpayable",
      "type": "function"
    },
    {
      "inputs": [
        {
          "internalType": "bytes4",
          "name": "interfaceId",
          "type": "bytes4"
        }
      ],
      "name": "supportsInterface",
      "outputs": [
        {
          "internalType": "bool",
          "name": "",
          "type": "bool"
        }
      ],
      "stateMutability": "view",
      "type": "function",
      "constant": true
    },
    {
      "inputs": [
        {
          "internalType": "string",
          "name": "_name",
          "type": "string"
        }
      ],
      "name": "create",
      "outputs": [
        {
          "internalType": "uint256",
          "name": "customerId",
          "type": "uint256"
        }
      ],
      "stateMutability": "nonpayable",
      "type": "function"
    },
    {
      "inputs": [
        {
          "internalType": "uint256",
          "name": "id",
          "type": "uint256"
        }
      ],
      "name": "get",
      "outputs": [
        {
          "internalType": "string",
          "name": "name",
          "type": "string"
        },
        {
          "internalType": "uint256[]",
          "name": "operations",
          "type": "uint256[]"
        }
      ],
      "stateMutability": "view",
      "type": "function",
      "constant": true
    },
    {
      "inputs": [
        {
          "internalType": "uint256",
          "name": "id",
          "type": "uint256"
        },
        {
          "internalType": "uint256",
          "name": "operationId",
          "type": "uint256"
        }
      ],
      "name": "addOperation",
      "outputs": [],
      "stateMutability": "nonpayable",
      "type": "function"
    },
    {
      "inputs": [
        {
          "internalType": "uint256",
          "name": "id",
          "type": "uint256"
        },
        {
          "internalType": "uint256",
          "name": "operationId",
          "type": "uint256"
        }
      ],
      "name": "removeOperation",
      "outputs": [],
      "stateMutability": "nonpayable",
      "type": "function"
    }
  ],
  "bytecode": "0x60a06040523480156200001157600080fd5b5060405162001f0238038062001f02833981810160405281019062000037919062000273565b808073ffffffffffffffffffffffffffffffffffffffff1660808173ffffffffffffffffffffffffffffffffffffffff1681525050506200009f7f6270edb7c868f86fda4adedba75108201087268ea345934db8bad688e1feb91b33620000a660201b60201c565b50620002a5565b620000b882826200019760201b60201c565b6200019357600160008084815260200190815260200160002060000160008373ffffffffffffffffffffffffffffffffffffffff1673ffffffffffffffffffffffffffffffffffffffff16815260200190815260200160002060006101000a81548160ff021916908315150217905550620001386200020160201b60201c565b73ffffffffffffffffffffffffffffffffffffffff168173ffffffffffffffffffffffffffffffffffffffff16837f2f8788117e7eff1d82e926ec794901d17c78024a50270940304540a733656f0d60405160405180910390a45b5050565b600080600084815260200190815260200160002060000160008373ffffffffffffffffffffffffffffffffffffffff1673ffffffffffffffffffffffffffffffffffffffff16815260200190815260200160002060009054906101000a900460ff16905092915050565b600033905090565b600080fd5b600073ffffffffffffffffffffffffffffffffffffffff82169050919050565b60006200023b826200020e565b9050919050565b6200024d816200022e565b81146200025957600080fd5b50565b6000815190506200026d8162000242565b92915050565b6000602082840312156200028c576200028b62000209565b5b60006200029c848285016200025c565b91505092915050565b608051611c3a620002c860003960008181610b6f0152610c090152611c3a6000f3fe608060405234801561001057600080fd5b50600436106100cf5760003560e01c806391d148541161008c578063a795a79311610066578063a795a79314610225578063b6a46b3b14610241578063d547741f14610271578063f9d042951461028d576100cf565b806391d14854146101a65780639507d39a146101d6578063a217fddf14610207576100cf565b806301ffc9a7146100d4578063117803e314610104578063248a9ca3146101225780632f2ff15d1461015257806336568abe1461016e5780635b62b5811461018a575b600080fd5b6100ee60048036038101906100e9919061117f565b6102ab565b6040516100fb91906111c7565b60405180910390f35b61010c610325565b60405161011991906111fb565b60405180910390f35b61013c60048036038101906101379190611242565b610349565b60405161014991906111fb565b60405180910390f35b61016c600480360381019061016791906112cd565b610368565b005b610188600480360381019061018391906112cd565b610389565b005b6101a4600480360381019061019f9190611343565b61040c565b005b6101c060048036038101906101bb91906112cd565b61047e565b6040516101cd91906111c7565b60405180910390f35b6101f060048036038101906101eb9190611383565b6104e8565b6040516101fe929190611507565b60405180910390f35b61020f6105fe565b60405161021c91906111fb565b60405180910390f35b61023f600480360381019061023a9190611343565b610605565b005b61025b60048036038101906102569190611673565b61076f565b60405161026891906116cb565b60405180910390f35b61028b600480360381019061028691906112cd565b6108b8565b005b6102956108d9565b6040516102a291906111fb565b60405180910390f35b60007f7965db0b000000000000000000000000000000000000000000000000000000007bffffffffffffffffffffffffffffffffffffffffffffffffffffffff1916827bffffffffffffffffffffffffffffffffffffffffffffffffffffffff1916148061031e575061031d826108fd565b5b9050919050565b7f6270edb7c868f86fda4adedba75108201087268ea345934db8bad688e1feb91b81565b6000806000838152602001908152602001600020600101549050919050565b61037182610349565b61037a81610967565b610384838361099f565b505050565b610391610a7f565b73ffffffffffffffffffffffffffffffffffffffff168173ffffffffffffffffffffffffffffffffffffffff16146103fe576040517f08c379a00000000000000000000000000000000000000000000000000000000081526004016103f590611758565b60405180910390fd5b6104088282610a87565b5050565b7f6270edb7c868f86fda4adedba75108201087268ea345934db8bad688e1feb91b61043681610967565b60006001600085815260200190815260200160002060010190508083908060018154018082558091505060019003906000526020600020016000909190919091505550505050565b600080600084815260200190815260200160002060000160008373ffffffffffffffffffffffffffffffffffffffff1673ffffffffffffffffffffffffffffffffffffffff16815260200190815260200160002060009054906101000a900460ff16905092915050565b6060806001600084815260200190815260200160002060000160016000858152602001908152602001600020600101818054610523906117a7565b80601f016020809104026020016040519081016040528092919081815260200182805461054f906117a7565b801561059c5780601f106105715761010080835404028352916020019161059c565b820191906000526020600020905b81548152906001019060200180831161057f57829003601f168201915b50505050509150808054806020026020016040519081016040528092919081815260200182805480156105ee57602002820191906000526020600020905b8154815260200190600101908083116105da575b5050505050905091509150915091565b6000801b81565b7f6270edb7c868f86fda4adedba75108201087268ea345934db8bad688e1feb91b61062f81610967565b600060016000858152602001908152602001600020600101905060008060005b838054905081101561069e5783818154811061066e5761066d6117d8565b5b9060005260206000200154860361068b578092506001915061069e565b808061069690611836565b91505061064f565b50806106df576040517f08c379a00000000000000000000000000000000000000000000000000000000081526004016106d6906118ca565b60405180910390fd5b8280549050821461074057600083600185805490506106fe91906118ea565b8154811061070f5761070e6117d8565b5b90600052602060002001549050808484815481106107305761072f6117d8565b5b9060005260206000200181905550505b828054806107515761075061191e565b5b60019003818190600052602060002001600090559055505050505050565b60007f6270edb7c868f86fda4adedba75108201087268ea345934db8bad688e1feb91b61079b81610967565b6000600280549050905060008067ffffffffffffffff8111156107c1576107c0611548565b5b6040519080825280602002602001820160405280156107ef5781602001602082028036833780820191505090505b509050604051806040016040528086815260200182815250600160008481526020019081526020016000206000820151816000019080519060200190610836929190611023565b5060208201518160010190805190602001906108539291906110a9565b509050506002829080600181540180825580915050600190039060005260206000200160009091909190915055817f06acbfb32bcf8383f3b0a768b70ac9ec234ea0f2d3b9c77fa6a2de69b919aad160405160405180910390a2819350505050919050565b6108c182610349565b6108ca81610967565b6108d48383610a87565b505050565b7fe870e9cffded00b0b933338bc23ae12648d8d2d4829802ab37a0908f14773b4d81565b60007f01ffc9a7000000000000000000000000000000000000000000000000000000007bffffffffffffffffffffffffffffffffffffffffffffffffffffffff1916827bffffffffffffffffffffffffffffffffffffffffffffffffffffffff1916149050919050565b61096f610b68565b156109925761098d61098082610b98565b610988610bc4565b610c32565b61099c565b61099b81610cb7565b5b50565b6109a9828261047e565b610a7b57600160008084815260200190815260200160002060000160008373ffffffffffffffffffffffffffffffffffffffff1673ffffffffffffffffffffffffffffffffffffffff16815260200190815260200160002060006101000a81548160ff021916908315150217905550610a20610a7f565b73ffffffffffffffffffffffffffffffffffffffff168173ffffffffffffffffffffffffffffffffffffffff16837f2f8788117e7eff1d82e926ec794901d17c78024a50270940304540a733656f0d60405160405180910390a45b5050565b600033905090565b610a91828261047e565b15610b6457600080600084815260200190815260200160002060000160008373ffffffffffffffffffffffffffffffffffffffff1673ffffffffffffffffffffffffffffffffffffffff16815260200190815260200160002060006101000a81548160ff021916908315150217905550610b09610a7f565b73ffffffffffffffffffffffffffffffffffffffff168173ffffffffffffffffffffffffffffffffffffffff16837ff6391f5c32d9c69d2a47ea670b442974b53935d1edc7fd64eb21e047a839171b60405160405180910390a45b5050565b6000610b937f0000000000000000000000000000000000000000000000000000000000000000610ccb565b905090565b60007fe870e9cffded00b0b933338bc23ae12648d8d2d4829802ab37a0908f14773b4d82189050919050565b6000610bce610b68565b610c04576040517f4a74df9200000000000000000000000000000000000000000000000000000000815260040160405180910390fd5b610c2d7f0000000000000000000000000000000000000000000000000000000000000000610d03565b905090565b610c3c828261047e565b610cb357610c4981610dba565b610c578360001c6020610de7565b604051602001610c68929190611a21565b6040516020818303038152906040526040517f08c379a0000000000000000000000000000000000000000000000000000000008152600401610caa9190611a5b565b60405180910390fd5b5050565b610cc881610cc3610a7f565b610c32565b50565b60008173ffffffffffffffffffffffffffffffffffffffff163373ffffffffffffffffffffffffffffffffffffffff16149050919050565b6000610d0e82610ccb565b610d44576040517f4a74df9200000000000000000000000000000000000000000000000000000000815260040160405180910390fd5b8173ffffffffffffffffffffffffffffffffffffffff16636e296e456040518163ffffffff1660e01b8152600401602060405180830381865afa158015610d8f573d6000803e3d6000fd5b505050506040513d601f19601f82011682018060405250810190610db39190611a92565b9050919050565b6060610de08273ffffffffffffffffffffffffffffffffffffffff16601460ff16610de7565b9050919050565b606060006002836002610dfa9190611abf565b610e049190611b19565b67ffffffffffffffff811115610e1d57610e1c611548565b5b6040519080825280601f01601f191660200182016040528015610e4f5781602001600182028036833780820191505090505b5090507f300000000000000000000000000000000000000000000000000000000000000081600081518110610e8757610e866117d8565b5b60200101907effffffffffffffffffffffffffffffffffffffffffffffffffffffffffffff1916908160001a9053507f780000000000000000000000000000000000000000000000000000000000000081600181518110610eeb57610eea6117d8565b5b60200101907effffffffffffffffffffffffffffffffffffffffffffffffffffffffffffff1916908160001a90535060006001846002610f2b9190611abf565b610f359190611b19565b90505b6001811115610fd5577f3031323334353637383961626364656600000000000000000000000000000000600f861660108110610f7757610f766117d8565b5b1a60f81b828281518110610f8e57610f8d6117d8565b5b60200101907effffffffffffffffffffffffffffffffffffffffffffffffffffffffffffff1916908160001a905350600485901c945080610fce90611b6f565b9050610f38565b5060008414611019576040517f08c379a000000000000000000000000000000000000000000000000000000000815260040161101090611be4565b60405180910390fd5b8091505092915050565b82805461102f906117a7565b90600052602060002090601f0160209004810192826110515760008555611098565b82601f1061106a57805160ff1916838001178555611098565b82800160010185558215611098579182015b8281111561109757825182559160200191906001019061107c565b5b5090506110a591906110f6565b5090565b8280548282559060005260206000209081019282156110e5579160200282015b828111156110e45782518255916020019190600101906110c9565b5b5090506110f291906110f6565b5090565b5b8082111561110f5760008160009055506001016110f7565b5090565b6000604051905090565b600080fd5b600080fd5b60007fffffffff0000000000000000000000000000000000000000000000000000000082169050919050565b61115c81611127565b811461116757600080fd5b50565b60008135905061117981611153565b92915050565b6000602082840312156111955761119461111d565b5b60006111a38482850161116a565b91505092915050565b60008115159050919050565b6111c1816111ac565b82525050565b60006020820190506111dc60008301846111b8565b92915050565b6000819050919050565b6111f5816111e2565b82525050565b600060208201905061121060008301846111ec565b92915050565b61121f816111e2565b811461122a57600080fd5b50565b60008135905061123c81611216565b92915050565b6000602082840312156112585761125761111d565b5b60006112668482850161122d565b91505092915050565b600073ffffffffffffffffffffffffffffffffffffffff82169050919050565b600061129a8261126f565b9050919050565b6112aa8161128f565b81146112b557600080fd5b50565b6000813590506112c7816112a1565b92915050565b600080604083850312156112e4576112e361111d565b5b60006112f28582860161122d565b9250506020611303858286016112b8565b9150509250929050565b6000819050919050565b6113208161130d565b811461132b57600080fd5b50565b60008135905061133d81611317565b92915050565b6000806040838503121561135a5761135961111d565b5b60006113688582860161132e565b92505060206113798582860161132e565b9150509250929050565b6000602082840312156113995761139861111d565b5b60006113a78482850161132e565b91505092915050565b600081519050919050565b600082825260208201905092915050565b60005b838110156113ea5780820151818401526020810190506113cf565b838111156113f9576000848401525b50505050565b6000601f19601f8301169050919050565b600061141b826113b0565b61142581856113bb565b93506114358185602086016113cc565b61143e816113ff565b840191505092915050565b600081519050919050565b600082825260208201905092915050565b6000819050602082019050919050565b61147e8161130d565b82525050565b60006114908383611475565b60208301905092915050565b6000602082019050919050565b60006114b482611449565b6114be8185611454565b93506114c983611465565b8060005b838110156114fa5781516114e18882611484565b97506114ec8361149c565b9250506001810190506114cd565b5085935050505092915050565b600060408201905081810360008301526115218185611410565b9050818103602083015261153581846114a9565b90509392505050565b600080fd5b600080fd5b7f4e487b7100000000000000000000000000000000000000000000000000000000600052604160045260246000fd5b611580826113ff565b810181811067ffffffffffffffff8211171561159f5761159e611548565b5b80604052505050565b60006115b2611113565b90506115be8282611577565b919050565b600067ffffffffffffffff8211156115de576115dd611548565b5b6115e7826113ff565b9050602081019050919050565b82818337600083830152505050565b6000611616611611846115c3565b6115a8565b90508281526020810184848401111561163257611631611543565b5b61163d8482856115f4565b509392505050565b600082601f83011261165a5761165961153e565b5b813561166a848260208601611603565b91505092915050565b6000602082840312156116895761168861111d565b5b600082013567ffffffffffffffff8111156116a7576116a6611122565b5b6116b384828501611645565b91505092915050565b6116c58161130d565b82525050565b60006020820190506116e060008301846116bc565b92915050565b7f416363657373436f6e74726f6c3a2063616e206f6e6c792072656e6f756e636560008201527f20726f6c657320666f722073656c660000000000000000000000000000000000602082015250565b6000611742602f836113bb565b915061174d826116e6565b604082019050919050565b6000602082019050818103600083015261177181611735565b9050919050565b7f4e487b7100000000000000000000000000000000000000000000000000000000600052602260045260246000fd5b600060028204905060018216806117bf57607f821691505b6020821081036117d2576117d1611778565b5b50919050565b7f4e487b7100000000000000000000000000000000000000000000000000000000600052603260045260246000fd5b7f4e487b7100000000000000000000000000000000000000000000000000000000600052601160045260246000fd5b60006118418261130d565b91507fffffffffffffffffffffffffffffffffffffffffffffffffffffffffffffffff820361187357611872611807565b5b600182019050919050565b7f4f7065726174696f6e206e6f7420666f756e6400000000000000000000000000600082015250565b60006118b46013836113bb565b91506118bf8261187e565b602082019050919050565b600060208201905081810360008301526118e3816118a7565b9050919050565b60006118f58261130d565b91506119008361130d565b92508282101561191357611912611807565b5b828203905092915050565b7f4e487b7100000000000000000000000000000000000000000000000000000000600052603160045260246000fd5b600081905092915050565b7f416363657373436f6e74726f6c3a206163636f756e7420000000000000000000600082015250565b600061198e60178361194d565b915061199982611958565b601782019050919050565b60006119af826113b0565b6119b9818561194d565b93506119c98185602086016113cc565b80840191505092915050565b7f206973206d697373696e6720726f6c6520000000000000000000000000000000600082015250565b6000611a0b60118361194d565b9150611a16826119d5565b601182019050919050565b6000611a2c82611981565b9150611a3882856119a4565b9150611a43826119fe565b9150611a4f82846119a4565b91508190509392505050565b60006020820190508181036000830152611a758184611410565b905092915050565b600081519050611a8c816112a1565b92915050565b600060208284031215611aa857611aa761111d565b5b6000611ab684828501611a7d565b91505092915050565b6000611aca8261130d565b9150611ad58361130d565b9250817fffffffffffffffffffffffffffffffffffffffffffffffffffffffffffffffff0483118215151615611b0e57611b0d611807565b5b828202905092915050565b6000611b248261130d565b9150611b2f8361130d565b9250827fffffffffffffffffffffffffffffffffffffffffffffffffffffffffffffffff03821115611b6457611b63611807565b5b828201905092915050565b6000611b7a8261130d565b915060008203611b8d57611b8c611807565b5b600182039050919050565b7f537472696e67733a20686578206c656e67746820696e73756666696369656e74600082015250565b6000611bce6020836113bb565b9150611bd982611b98565b602082019050919050565b60006020820190508181036000830152611bfd81611bc1565b905091905056fea264697066735822122088b52acb34e726363103f945dbe19da112a7ec1ad4ced356802c502311f2dd5764736f6c634300080d0033",
  "immutableReferences": {
    "3484": [
      {
        "length": 32,
        "start": 2927
      },
      {
        "length": 32,
        "start": 3081
      }
    ]
  },
  "source": "// SPDX-License-Identifier: MIT\r\npragma solidity ^0.8.13;\r\n\r\nimport {AccessControlCrossChainOptimism} from \"./lib/AccessControlCrossChainOptimism.sol\";\r\nimport {ICustomer} from \"./interfaces/ICustomer.sol\";\r\n\r\ncontract Customer is ICustomer, AccessControlCrossChainOptimism {\r\n\r\n  bytes32 public constant OWNER = keccak256(\"OWNER\");\r\n\r\n  struct CustomerData {\r\n    string name;\r\n    uint256[] operations;\r\n  }\r\n\r\n  mapping(uint256 => CustomerData) private customers;\r\n  uint256[] private customerIds;\r\n\r\n  event Created(uint256 indexed _id);\r\n\r\n  constructor(address crossChainMessenger) AccessControlCrossChainOptimism(crossChainMessenger){\r\n    _grantRole(OWNER, msg.sender);\r\n  }\r\n\r\n  function create(string memory _name)\r\n  public onlyRole(OWNER)\r\n  returns (uint256 customerId) {\r\n    uint256 id = customerIds.length;\r\n    uint256[] memory operations = new uint256[](0);\r\n    customers[id] = CustomerData(_name, operations);\r\n    customerIds.push(id);\r\n    emit Created(id);\r\n    return id;\r\n  }\r\n\r\n  function get(uint256 id)\r\n  public view\r\n  returns (string memory name, uint256[] memory operations) {\r\n    return (customers[id].name, customers[id].operations);\r\n  }\r\n\r\n  function addOperation(uint256 id, uint256 operationId)\r\n  public onlyRole(OWNER) {\r\n    uint256[] storage operations = customers[id].operations;\r\n    operations.push(operationId);\r\n  }\r\n\r\n  function removeOperation(uint256 id, uint256 operationId)\r\n  public onlyRole(OWNER) {\r\n    uint256[] storage operations = customers[id].operations;\r\n    // Find index of operation ID\r\n    uint256 index = 0;\r\n    bool isFound = false;\r\n    for(uint256 i = 0; i < operations.length; i++){\r\n      if(operationId == operations[i]){\r\n        index = i;\r\n        isFound = true;\r\n        break;\r\n      }\r\n    }\r\n    require(isFound, \"Operation not found\");\r\n    // Swap last operation ID and ID to be removed (if needed)\r\n    if(index != operations.length){\r\n      uint256 lastOperation = operations[operations.length - 1];\r\n      operations[index] = lastOperation;\r\n    }\r\n    // Remove last element of operations list\r\n    operations.pop();\r\n  }\r\n}\r\n",
  "sourcePath": "C:\\Users\\tjhar\\Enkainos\\platform-contracts\\contracts\\Customer.sol",
  "compiler": {
    "name": "solc",
    "version": "0.8.13+commit.abaa5c0e.Emscripten.clang"
  },
  "schemaVersion": "3.4.13",
  "updatedAt": "2023-07-08T16:00:24.820Z",
  "networkType": "ethereum",
  "devdoc": {
    "kind": "dev",
    "methods": {
      "getRoleAdmin(bytes32)": {
        "details": "Returns the admin role that controls `role`. See {grantRole} and {revokeRole}. To change a role's admin, use {_setRoleAdmin}."
      },
      "grantRole(bytes32,address)": {
        "details": "Grants `role` to `account`. If `account` had not been already granted `role`, emits a {RoleGranted} event. Requirements: - the caller must have ``role``'s admin role. May emit a {RoleGranted} event."
      },
      "hasRole(bytes32,address)": {
        "details": "Returns `true` if `account` has been granted `role`."
      },
      "renounceRole(bytes32,address)": {
        "details": "Revokes `role` from the calling account. Roles are often managed via {grantRole} and {revokeRole}: this function's purpose is to provide a mechanism for accounts to lose their privileges if they are compromised (such as when a trusted device is misplaced). If the calling account had been revoked `role`, emits a {RoleRevoked} event. Requirements: - the caller must be `account`. May emit a {RoleRevoked} event."
      },
      "revokeRole(bytes32,address)": {
        "details": "Revokes `role` from `account`. If `account` had been granted `role`, emits a {RoleRevoked} event. Requirements: - the caller must have ``role``'s admin role. May emit a {RoleRevoked} event."
      },
      "supportsInterface(bytes4)": {
        "details": "See {IERC165-supportsInterface}."
      }
    },
    "version": 1
  },
  "userdoc": {
    "kind": "user",
    "methods": {},
    "version": 1
  }
}