{
  "contractName": "CustomerInvoice",
  "abi": [
    {
      "inputs": [
        {
          "internalType": "address",
          "name": "crossChainMessenger",
          "type": "address"
        }
      ],
      "stateMutability": "nonpayable",
      "type": "constructor"
    },
    {
      "inputs": [],
      "name": "NotCrossChainCall",
      "type": "error"
    },
    {
      "anonymous": false,
      "inputs": [
        {
          "indexed": true,
          "internalType": "bytes32",
          "name": "role",
          "type": "bytes32"
        },
        {
          "indexed": true,
          "internalType": "bytes32",
          "name": "previousAdminRole",
          "type": "bytes32"
        },
        {
          "indexed": true,
          "internalType": "bytes32",
          "name": "newAdminRole",
          "type": "bytes32"
        }
      ],
      "name": "RoleAdminChanged",
      "type": "event"
    },
    {
      "anonymous": false,
      "inputs": [
        {
          "indexed": true,
          "internalType": "bytes32",
          "name": "role",
          "type": "bytes32"
        },
        {
          "indexed": true,
          "internalType": "address",
          "name": "account",
          "type": "address"
        },
        {
          "indexed": true,
          "internalType": "address",
          "name": "sender",
          "type": "address"
        }
      ],
      "name": "RoleGranted",
      "type": "event"
    },
    {
      "anonymous": false,
      "inputs": [
        {
          "indexed": true,
          "internalType": "bytes32",
          "name": "role",
          "type": "bytes32"
        },
        {
          "indexed": true,
          "internalType": "address",
          "name": "account",
          "type": "address"
        },
        {
          "indexed": true,
          "internalType": "address",
          "name": "sender",
          "type": "address"
        }
      ],
      "name": "RoleRevoked",
      "type": "event"
    },
    {
      "inputs": [],
      "name": "CROSSCHAIN_ALIAS",
      "outputs": [
        {
          "internalType": "bytes32",
          "name": "",
          "type": "bytes32"
        }
      ],
      "stateMutability": "view",
      "type": "function"
    },
    {
      "inputs": [],
      "name": "DEFAULT_ADMIN_ROLE",
      "outputs": [
        {
          "internalType": "bytes32",
          "name": "",
          "type": "bytes32"
        }
      ],
      "stateMutability": "view",
      "type": "function"
    },
    {
      "inputs": [],
      "name": "OWNER",
      "outputs": [
        {
          "internalType": "bytes32",
          "name": "",
          "type": "bytes32"
        }
      ],
      "stateMutability": "view",
      "type": "function"
    },
    {
      "inputs": [
        {
          "internalType": "bytes32",
          "name": "role",
          "type": "bytes32"
        }
      ],
      "name": "getRoleAdmin",
      "outputs": [
        {
          "internalType": "bytes32",
          "name": "",
          "type": "bytes32"
        }
      ],
      "stateMutability": "view",
      "type": "function"
    },
    {
      "inputs": [
        {
          "internalType": "bytes32",
          "name": "role",
          "type": "bytes32"
        },
        {
          "internalType": "address",
          "name": "account",
          "type": "address"
        }
      ],
      "name": "grantRole",
      "outputs": [],
      "stateMutability": "nonpayable",
      "type": "function"
    },
    {
      "inputs": [
        {
          "internalType": "bytes32",
          "name": "role",
          "type": "bytes32"
        },
        {
          "internalType": "address",
          "name": "account",
          "type": "address"
        }
      ],
      "name": "hasRole",
      "outputs": [
        {
          "internalType": "bool",
          "name": "",
          "type": "bool"
        }
      ],
      "stateMutability": "view",
      "type": "function"
    },
    {
      "inputs": [
        {
          "internalType": "bytes32",
          "name": "role",
          "type": "bytes32"
        },
        {
          "internalType": "address",
          "name": "account",
          "type": "address"
        }
      ],
      "name": "renounceRole",
      "outputs": [],
      "stateMutability": "nonpayable",
      "type": "function"
    },
    {
      "inputs": [
        {
          "internalType": "bytes32",
          "name": "role",
          "type": "bytes32"
        },
        {
          "internalType": "address",
          "name": "account",
          "type": "address"
        }
      ],
      "name": "revokeRole",
      "outputs": [],
      "stateMutability": "nonpayable",
      "type": "function"
    },
    {
      "inputs": [
        {
          "internalType": "bytes4",
          "name": "interfaceId",
          "type": "bytes4"
        }
      ],
      "name": "supportsInterface",
      "outputs": [
        {
          "internalType": "bool",
          "name": "",
          "type": "bool"
        }
      ],
      "stateMutability": "view",
      "type": "function"
    },
    {
      "inputs": [
        {
          "internalType": "uint256",
          "name": "_customerId",
          "type": "uint256"
        },
        {
          "internalType": "uint256",
          "name": "_operationId",
          "type": "uint256"
        },
        {
          "internalType": "uint256[]",
          "name": "_materials",
          "type": "uint256[]"
        },
        {
          "internalType": "uint256[]",
          "name": "_quantities",
          "type": "uint256[]"
        },
        {
          "internalType": "uint256",
          "name": "_timestamp",
          "type": "uint256"
        }
      ],
      "name": "create",
      "outputs": [
        {
          "internalType": "uint256",
          "name": "customerInvoiceId",
          "type": "uint256"
        }
      ],
      "stateMutability": "nonpayable",
      "type": "function"
    },
    {
      "inputs": [
        {
          "internalType": "uint256",
          "name": "id",
          "type": "uint256"
        }
      ],
      "name": "get",
      "outputs": [
        {
          "internalType": "uint256",
          "name": "customerId",
          "type": "uint256"
        },
        {
          "internalType": "uint256",
          "name": "operationId",
          "type": "uint256"
        },
        {
          "internalType": "uint256[]",
          "name": "materials",
          "type": "uint256[]"
        },
        {
          "internalType": "uint256[]",
          "name": "quantities",
          "type": "uint256[]"
        },
        {
          "internalType": "uint256",
          "name": "timestamp",
          "type": "uint256"
        }
      ],
      "stateMutability": "view",
      "type": "function"
    }
  ],
  "bytecode": "0x60a06040523480156200001157600080fd5b50604051620019ac380380620019ac8339818101604052810190620000379190620000de565b808073ffffffffffffffffffffffffffffffffffffffff1660808173ffffffffffffffffffffffffffffffffffffffff1681525050505062000110565b600080fd5b600073ffffffffffffffffffffffffffffffffffffffff82169050919050565b6000620000a68262000079565b9050919050565b620000b88162000099565b8114620000c457600080fd5b50565b600081519050620000d881620000ad565b92915050565b600060208284031215620000f757620000f662000074565b5b60006200010784828501620000c7565b91505092915050565b608051611879620001336000396000818161094401526109de01526118796000f3fe608060405234801561001057600080fd5b50600436106100a95760003560e01c806356775daa1161007157806356775daa1461016457806391d14854146101945780639507d39a146101c4578063a217fddf146101f8578063d547741f14610216578063f9d0429514610232576100a9565b806301ffc9a7146100ae578063117803e3146100de578063248a9ca3146100fc5780632f2ff15d1461012c57806336568abe14610148575b600080fd5b6100c860048036038101906100c39190610ece565b610250565b6040516100d59190610f16565b60405180910390f35b6100e66102ca565b6040516100f39190610f4a565b60405180910390f35b61011660048036038101906101119190610f91565b6102ee565b6040516101239190610f4a565b60405180910390f35b6101466004803603810190610141919061101c565b61030d565b005b610162600480360381019061015d919061101c565b61032e565b005b61017e600480360381019061017991906111eb565b6103b1565b60405161018b91906112ad565b60405180910390f35b6101ae60048036038101906101a9919061101c565b6104c4565b6040516101bb9190610f16565b60405180910390f35b6101de60048036038101906101d991906112c8565b61052e565b6040516101ef9594939291906113b3565b60405180910390f35b610200610686565b60405161020d9190610f4a565b60405180910390f35b610230600480360381019061022b919061101c565b61068d565b005b61023a6106ae565b6040516102479190610f4a565b60405180910390f35b60007f7965db0b000000000000000000000000000000000000000000000000000000007bffffffffffffffffffffffffffffffffffffffffffffffffffffffff1916827bffffffffffffffffffffffffffffffffffffffffffffffffffffffff191614806102c357506102c2826106d2565b5b9050919050565b7f6270edb7c868f86fda4adedba75108201087268ea345934db8bad688e1feb91b81565b6000806000838152602001908152602001600020600101549050919050565b610316826102ee565b61031f8161073c565b6103298383610774565b505050565b610336610854565b73ffffffffffffffffffffffffffffffffffffffff168173ffffffffffffffffffffffffffffffffffffffff16146103a3576040517f08c379a000000000000000000000000000000000000000000000000000000000815260040161039a90611497565b60405180910390fd5b6103ad828261085c565b5050565b60007f6270edb7c868f86fda4adedba75108201087268ea345934db8bad688e1feb91b6103dd8161073c565b6000600180549050905087600182815481106103fc576103fb6114b7565b5b9060005260206000200181905550866002828154811061041f5761041e6114b7565b5b90600052602060002001819055508560038281548110610442576104416114b7565b5b90600052602060002001908051906020019061045f929190610df8565b508460048281548110610475576104746114b7565b5b906000526020600020019080519060200190610492929190610df8565b5083600582815481106104a8576104a76114b7565b5b9060005260206000200181905550809250505095945050505050565b600080600084815260200190815260200160002060000160008373ffffffffffffffffffffffffffffffffffffffff1673ffffffffffffffffffffffffffffffffffffffff16815260200190815260200160002060009054906101000a900460ff16905092915050565b60008060608060006001868154811061054a576105496114b7565b5b906000526020600020015460028781548110610569576105686114b7565b5b906000526020600020015460038881548110610588576105876114b7565b5b90600052602060002001600489815481106105a6576105a56114b7565b5b9060005260206000200160058a815481106105c4576105c36114b7565b5b90600052602060002001548280548060200260200160405190810160405280929190818152602001828054801561061a57602002820191906000526020600020905b815481526020019060010190808311610606575b505050505092508180548060200260200160405190810160405280929190818152602001828054801561066c57602002820191906000526020600020905b815481526020019060010190808311610658575b505050505091509450945094509450945091939590929450565b6000801b81565b610696826102ee565b61069f8161073c565b6106a9838361085c565b505050565b7fe870e9cffded00b0b933338bc23ae12648d8d2d4829802ab37a0908f14773b4d81565b60007f01ffc9a7000000000000000000000000000000000000000000000000000000007bffffffffffffffffffffffffffffffffffffffffffffffffffffffff1916827bffffffffffffffffffffffffffffffffffffffffffffffffffffffff1916149050919050565b61074461093d565b15610767576107626107558261096d565b61075d610999565b610a07565b610771565b61077081610a8c565b5b50565b61077e82826104c4565b61085057600160008084815260200190815260200160002060000160008373ffffffffffffffffffffffffffffffffffffffff1673ffffffffffffffffffffffffffffffffffffffff16815260200190815260200160002060006101000a81548160ff0219169083151502179055506107f5610854565b73ffffffffffffffffffffffffffffffffffffffff168173ffffffffffffffffffffffffffffffffffffffff16837f2f8788117e7eff1d82e926ec794901d17c78024a50270940304540a733656f0d60405160405180910390a45b5050565b600033905090565b61086682826104c4565b1561093957600080600084815260200190815260200160002060000160008373ffffffffffffffffffffffffffffffffffffffff1673ffffffffffffffffffffffffffffffffffffffff16815260200190815260200160002060006101000a81548160ff0219169083151502179055506108de610854565b73ffffffffffffffffffffffffffffffffffffffff168173ffffffffffffffffffffffffffffffffffffffff16837ff6391f5c32d9c69d2a47ea670b442974b53935d1edc7fd64eb21e047a839171b60405160405180910390a45b5050565b60006109687f0000000000000000000000000000000000000000000000000000000000000000610aa0565b905090565b60007fe870e9cffded00b0b933338bc23ae12648d8d2d4829802ab37a0908f14773b4d82189050919050565b60006109a361093d565b6109d9576040517f4a74df9200000000000000000000000000000000000000000000000000000000815260040160405180910390fd5b610a027f0000000000000000000000000000000000000000000000000000000000000000610ad8565b905090565b610a1182826104c4565b610a8857610a1e81610b8f565b610a2c8360001c6020610bbc565b604051602001610a3d9291906115f8565b6040516020818303038152906040526040517f08c379a0000000000000000000000000000000000000000000000000000000008152600401610a7f919061166b565b60405180910390fd5b5050565b610a9d81610a98610854565b610a07565b50565b60008173ffffffffffffffffffffffffffffffffffffffff163373ffffffffffffffffffffffffffffffffffffffff16149050919050565b6000610ae382610aa0565b610b19576040517f4a74df9200000000000000000000000000000000000000000000000000000000815260040160405180910390fd5b8173ffffffffffffffffffffffffffffffffffffffff16636e296e456040518163ffffffff1660e01b8152600401602060405180830381865afa158015610b64573d6000803e3d6000fd5b505050506040513d601f19601f82011682018060405250810190610b8891906116a2565b9050919050565b6060610bb58273ffffffffffffffffffffffffffffffffffffffff16601460ff16610bbc565b9050919050565b606060006002836002610bcf91906116fe565b610bd99190611758565b67ffffffffffffffff811115610bf257610bf16110a8565b5b6040519080825280601f01601f191660200182016040528015610c245781602001600182028036833780820191505090505b5090507f300000000000000000000000000000000000000000000000000000000000000081600081518110610c5c57610c5b6114b7565b5b60200101907effffffffffffffffffffffffffffffffffffffffffffffffffffffffffffff1916908160001a9053507f780000000000000000000000000000000000000000000000000000000000000081600181518110610cc057610cbf6114b7565b5b60200101907effffffffffffffffffffffffffffffffffffffffffffffffffffffffffffff1916908160001a90535060006001846002610d0091906116fe565b610d0a9190611758565b90505b6001811115610daa577f3031323334353637383961626364656600000000000000000000000000000000600f861660108110610d4c57610d4b6114b7565b5b1a60f81b828281518110610d6357610d626114b7565b5b60200101907effffffffffffffffffffffffffffffffffffffffffffffffffffffffffffff1916908160001a905350600485901c945080610da3906117ae565b9050610d0d565b5060008414610dee576040517f08c379a0000000000000000000000000000000000000000000000000000000008152600401610de590611823565b60405180910390fd5b8091505092915050565b828054828255906000526020600020908101928215610e34579160200282015b82811115610e33578251825591602001919060010190610e18565b5b509050610e419190610e45565b5090565b5b80821115610e5e576000816000905550600101610e46565b5090565b6000604051905090565b600080fd5b600080fd5b60007fffffffff0000000000000000000000000000000000000000000000000000000082169050919050565b610eab81610e76565b8114610eb657600080fd5b50565b600081359050610ec881610ea2565b92915050565b600060208284031215610ee457610ee3610e6c565b5b6000610ef284828501610eb9565b91505092915050565b60008115159050919050565b610f1081610efb565b82525050565b6000602082019050610f2b6000830184610f07565b92915050565b6000819050919050565b610f4481610f31565b82525050565b6000602082019050610f5f6000830184610f3b565b92915050565b610f6e81610f31565b8114610f7957600080fd5b50565b600081359050610f8b81610f65565b92915050565b600060208284031215610fa757610fa6610e6c565b5b6000610fb584828501610f7c565b91505092915050565b600073ffffffffffffffffffffffffffffffffffffffff82169050919050565b6000610fe982610fbe565b9050919050565b610ff981610fde565b811461100457600080fd5b50565b60008135905061101681610ff0565b92915050565b6000806040838503121561103357611032610e6c565b5b600061104185828601610f7c565b925050602061105285828601611007565b9150509250929050565b6000819050919050565b61106f8161105c565b811461107a57600080fd5b50565b60008135905061108c81611066565b92915050565b600080fd5b6000601f19601f8301169050919050565b7f4e487b7100000000000000000000000000000000000000000000000000000000600052604160045260246000fd5b6110e082611097565b810181811067ffffffffffffffff821117156110ff576110fe6110a8565b5b80604052505050565b6000611112610e62565b905061111e82826110d7565b919050565b600067ffffffffffffffff82111561113e5761113d6110a8565b5b602082029050602081019050919050565b600080fd5b600061116761116284611123565b611108565b9050808382526020820190506020840283018581111561118a5761118961114f565b5b835b818110156111b3578061119f888261107d565b84526020840193505060208101905061118c565b5050509392505050565b600082601f8301126111d2576111d1611092565b5b81356111e2848260208601611154565b91505092915050565b600080600080600060a0868803121561120757611206610e6c565b5b60006112158882890161107d565b95505060206112268882890161107d565b945050604086013567ffffffffffffffff81111561124757611246610e71565b5b611253888289016111bd565b935050606086013567ffffffffffffffff81111561127457611273610e71565b5b611280888289016111bd565b92505060806112918882890161107d565b9150509295509295909350565b6112a78161105c565b82525050565b60006020820190506112c2600083018461129e565b92915050565b6000602082840312156112de576112dd610e6c565b5b60006112ec8482850161107d565b91505092915050565b600081519050919050565b600082825260208201905092915050565b6000819050602082019050919050565b61132a8161105c565b82525050565b600061133c8383611321565b60208301905092915050565b6000602082019050919050565b6000611360826112f5565b61136a8185611300565b935061137583611311565b8060005b838110156113a657815161138d8882611330565b975061139883611348565b925050600181019050611379565b5085935050505092915050565b600060a0820190506113c8600083018861129e565b6113d5602083018761129e565b81810360408301526113e78186611355565b905081810360608301526113fb8185611355565b905061140a608083018461129e565b9695505050505050565b600082825260208201905092915050565b7f416363657373436f6e74726f6c3a2063616e206f6e6c792072656e6f756e636560008201527f20726f6c657320666f722073656c660000000000000000000000000000000000602082015250565b6000611481602f83611414565b915061148c82611425565b604082019050919050565b600060208201905081810360008301526114b081611474565b9050919050565b7f4e487b7100000000000000000000000000000000000000000000000000000000600052603260045260246000fd5b600081905092915050565b7f416363657373436f6e74726f6c3a206163636f756e7420000000000000000000600082015250565b60006115276017836114e6565b9150611532826114f1565b601782019050919050565b600081519050919050565b60005b8381101561156657808201518184015260208101905061154b565b83811115611575576000848401525b50505050565b60006115868261153d565b61159081856114e6565b93506115a0818560208601611548565b80840191505092915050565b7f206973206d697373696e6720726f6c6520000000000000000000000000000000600082015250565b60006115e26011836114e6565b91506115ed826115ac565b601182019050919050565b60006116038261151a565b915061160f828561157b565b915061161a826115d5565b9150611626828461157b565b91508190509392505050565b600061163d8261153d565b6116478185611414565b9350611657818560208601611548565b61166081611097565b840191505092915050565b600060208201905081810360008301526116858184611632565b905092915050565b60008151905061169c81610ff0565b92915050565b6000602082840312156116b8576116b7610e6c565b5b60006116c68482850161168d565b91505092915050565b7f4e487b7100000000000000000000000000000000000000000000000000000000600052601160045260246000fd5b60006117098261105c565b91506117148361105c565b9250817fffffffffffffffffffffffffffffffffffffffffffffffffffffffffffffffff048311821515161561174d5761174c6116cf565b5b828202905092915050565b60006117638261105c565b915061176e8361105c565b9250827fffffffffffffffffffffffffffffffffffffffffffffffffffffffffffffffff038211156117a3576117a26116cf565b5b828201905092915050565b60006117b98261105c565b9150600082036117cc576117cb6116cf565b5b600182039050919050565b7f537472696e67733a20686578206c656e67746820696e73756666696369656e74600082015250565b600061180d602083611414565b9150611818826117d7565b602082019050919050565b6000602082019050818103600083015261183c81611800565b905091905056fea2646970667358221220e032745889ee13d078afc4a0405b1fd70ef30d8f0f4f87f91be4a63ee42b374d64736f6c634300080d0033",
  "immutableReferences": {
    "3074": [
      {
        "length": 32,
        "start": 2372
      },
      {
        "length": 32,
        "start": 2526
      }
    ]
  },
  "source": "// SPDX-License-Identifier: MIT\r\npragma solidity ^0.8.13;\r\n\r\nimport {AccessControlCrossChainOptimism} from \"./lib/AccessControlCrossChainOptimism.sol\";\r\nimport {ICustomerInvoice} from \"./interfaces/ICustomerInvoice.sol\";\r\n\r\ncontract CustomerInvoice is ICustomerInvoice, AccessControlCrossChainOptimism {\r\n\r\n  bytes32 public constant OWNER = keccak256(\"OWNER\");\r\n\r\n  uint256[] private customers;\r\n  uint256[] private operations;\r\n  uint256[][] private materialLists;\r\n  uint256[][] private quantityLists;\r\n  uint256[] private timestamps;\r\n\r\n  constructor(address crossChainMessenger) AccessControlCrossChainOptimism(crossChainMessenger){}\r\n\r\n  function create(\r\n    uint256 _customerId,\r\n    uint256 _operationId,\r\n    uint256[] memory _materials,\r\n    uint256[] memory _quantities,\r\n    uint256 _timestamp\r\n  )\r\n  public onlyRole(OWNER)\r\n  returns (uint256 customerInvoiceId){\r\n    uint256 id = customers.length;\r\n    customers[id] = _customerId;\r\n    operations[id] = _operationId;\r\n    materialLists[id] = _materials;\r\n    quantityLists[id] = _quantities;\r\n    timestamps[id] = _timestamp;\r\n    return id;\r\n  }\r\n\r\n  function get(uint256 id)\r\n  public view\r\n  returns (\r\n    uint256 customerId,\r\n    uint256 operationId,\r\n    uint256[] memory materials,\r\n    uint256[] memory quantities,\r\n    uint256 timestamp\r\n  ) {\r\n    return (customers[id], operations[id], materialLists[id], quantityLists[id], timestamps[id]);\r\n  }\r\n}\r\n",
  "sourcePath": "C:\\Users\\tjhar\\Enkainos\\platform-contracts\\contracts\\CustomerInvoice.sol",
  "compiler": {
    "name": "solc",
    "version": "0.8.13+commit.abaa5c0e.Emscripten.clang"
  },
  "schemaVersion": "3.4.13",
  "updatedAt": "2023-06-18T17:12:59.142Z",
  "devdoc": {
    "kind": "dev",
    "methods": {
      "getRoleAdmin(bytes32)": {
        "details": "Returns the admin role that controls `role`. See {grantRole} and {revokeRole}. To change a role's admin, use {_setRoleAdmin}."
      },
      "grantRole(bytes32,address)": {
        "details": "Grants `role` to `account`. If `account` had not been already granted `role`, emits a {RoleGranted} event. Requirements: - the caller must have ``role``'s admin role. May emit a {RoleGranted} event."
      },
      "hasRole(bytes32,address)": {
        "details": "Returns `true` if `account` has been granted `role`."
      },
      "renounceRole(bytes32,address)": {
        "details": "Revokes `role` from the calling account. Roles are often managed via {grantRole} and {revokeRole}: this function's purpose is to provide a mechanism for accounts to lose their privileges if they are compromised (such as when a trusted device is misplaced). If the calling account had been revoked `role`, emits a {RoleRevoked} event. Requirements: - the caller must be `account`. May emit a {RoleRevoked} event."
      },
      "revokeRole(bytes32,address)": {
        "details": "Revokes `role` from `account`. If `account` had been granted `role`, emits a {RoleRevoked} event. Requirements: - the caller must have ``role``'s admin role. May emit a {RoleRevoked} event."
      },
      "supportsInterface(bytes4)": {
        "details": "See {IERC165-supportsInterface}."
      }
    },
    "version": 1
  },
  "userdoc": {
    "kind": "user",
    "methods": {},
    "version": 1
  }
}