{
  "contractName": "Material",
  "abi": [
    {
      "inputs": [
        {
          "internalType": "address",
          "name": "crossChainMessenger",
          "type": "address"
        }
      ],
      "stateMutability": "nonpayable",
      "type": "constructor"
    },
    {
      "inputs": [],
      "name": "NotCrossChainCall",
      "type": "error"
    },
    {
      "anonymous": false,
      "inputs": [
        {
          "indexed": true,
          "internalType": "bytes32",
          "name": "role",
          "type": "bytes32"
        },
        {
          "indexed": true,
          "internalType": "bytes32",
          "name": "previousAdminRole",
          "type": "bytes32"
        },
        {
          "indexed": true,
          "internalType": "bytes32",
          "name": "newAdminRole",
          "type": "bytes32"
        }
      ],
      "name": "RoleAdminChanged",
      "type": "event"
    },
    {
      "anonymous": false,
      "inputs": [
        {
          "indexed": true,
          "internalType": "bytes32",
          "name": "role",
          "type": "bytes32"
        },
        {
          "indexed": true,
          "internalType": "address",
          "name": "account",
          "type": "address"
        },
        {
          "indexed": true,
          "internalType": "address",
          "name": "sender",
          "type": "address"
        }
      ],
      "name": "RoleGranted",
      "type": "event"
    },
    {
      "anonymous": false,
      "inputs": [
        {
          "indexed": true,
          "internalType": "bytes32",
          "name": "role",
          "type": "bytes32"
        },
        {
          "indexed": true,
          "internalType": "address",
          "name": "account",
          "type": "address"
        },
        {
          "indexed": true,
          "internalType": "address",
          "name": "sender",
          "type": "address"
        }
      ],
      "name": "RoleRevoked",
      "type": "event"
    },
    {
      "inputs": [],
      "name": "CROSSCHAIN_ALIAS",
      "outputs": [
        {
          "internalType": "bytes32",
          "name": "",
          "type": "bytes32"
        }
      ],
      "stateMutability": "view",
      "type": "function"
    },
    {
      "inputs": [],
      "name": "DEFAULT_ADMIN_ROLE",
      "outputs": [
        {
          "internalType": "bytes32",
          "name": "",
          "type": "bytes32"
        }
      ],
      "stateMutability": "view",
      "type": "function"
    },
    {
      "inputs": [],
      "name": "OWNER",
      "outputs": [
        {
          "internalType": "bytes32",
          "name": "",
          "type": "bytes32"
        }
      ],
      "stateMutability": "view",
      "type": "function"
    },
    {
      "inputs": [
        {
          "internalType": "bytes32",
          "name": "role",
          "type": "bytes32"
        }
      ],
      "name": "getRoleAdmin",
      "outputs": [
        {
          "internalType": "bytes32",
          "name": "",
          "type": "bytes32"
        }
      ],
      "stateMutability": "view",
      "type": "function"
    },
    {
      "inputs": [
        {
          "internalType": "bytes32",
          "name": "role",
          "type": "bytes32"
        },
        {
          "internalType": "address",
          "name": "account",
          "type": "address"
        }
      ],
      "name": "grantRole",
      "outputs": [],
      "stateMutability": "nonpayable",
      "type": "function"
    },
    {
      "inputs": [
        {
          "internalType": "bytes32",
          "name": "role",
          "type": "bytes32"
        },
        {
          "internalType": "address",
          "name": "account",
          "type": "address"
        }
      ],
      "name": "hasRole",
      "outputs": [
        {
          "internalType": "bool",
          "name": "",
          "type": "bool"
        }
      ],
      "stateMutability": "view",
      "type": "function"
    },
    {
      "inputs": [
        {
          "internalType": "bytes32",
          "name": "role",
          "type": "bytes32"
        },
        {
          "internalType": "address",
          "name": "account",
          "type": "address"
        }
      ],
      "name": "renounceRole",
      "outputs": [],
      "stateMutability": "nonpayable",
      "type": "function"
    },
    {
      "inputs": [
        {
          "internalType": "bytes32",
          "name": "role",
          "type": "bytes32"
        },
        {
          "internalType": "address",
          "name": "account",
          "type": "address"
        }
      ],
      "name": "revokeRole",
      "outputs": [],
      "stateMutability": "nonpayable",
      "type": "function"
    },
    {
      "inputs": [
        {
          "internalType": "bytes4",
          "name": "interfaceId",
          "type": "bytes4"
        }
      ],
      "name": "supportsInterface",
      "outputs": [
        {
          "internalType": "bool",
          "name": "",
          "type": "bool"
        }
      ],
      "stateMutability": "view",
      "type": "function"
    },
    {
      "inputs": [
        {
          "internalType": "string",
          "name": "_name",
          "type": "string"
        },
        {
          "internalType": "string",
          "name": "_unit",
          "type": "string"
        },
        {
          "internalType": "uint8",
          "name": "_precision",
          "type": "uint8"
        }
      ],
      "name": "create",
      "outputs": [
        {
          "internalType": "uint256",
          "name": "materialId",
          "type": "uint256"
        }
      ],
      "stateMutability": "nonpayable",
      "type": "function"
    },
    {
      "inputs": [
        {
          "internalType": "uint256",
          "name": "id",
          "type": "uint256"
        }
      ],
      "name": "get",
      "outputs": [
        {
          "internalType": "string",
          "name": "name",
          "type": "string"
        },
        {
          "internalType": "string",
          "name": "unit",
          "type": "string"
        },
        {
          "internalType": "uint8",
          "name": "precision",
          "type": "uint8"
        }
      ],
      "stateMutability": "view",
      "type": "function"
    }
  ],
  "bytecode": "0x60a06040523480156200001157600080fd5b506040516200198c3803806200198c8339818101604052810190620000379190620000de565b808073ffffffffffffffffffffffffffffffffffffffff1660808173ffffffffffffffffffffffffffffffffffffffff1681525050505062000110565b600080fd5b600073ffffffffffffffffffffffffffffffffffffffff82169050919050565b6000620000a68262000079565b9050919050565b620000b88162000099565b8114620000c457600080fd5b50565b600081519050620000d881620000ad565b92915050565b600060208284031215620000f757620000f662000074565b5b60006200010784828501620000c7565b91505092915050565b608051611859620001336000396000818161095801526109f201526118596000f3fe608060405234801561001057600080fd5b50600436106100a95760003560e01c806336568abe1161007157806336568abe1461017857806391d14854146101945780639507d39a146101c4578063a217fddf146101f6578063d547741f14610214578063f9d0429514610230576100a9565b806301ffc9a7146100ae578063117803e3146100de57806323ea11e7146100fc578063248a9ca31461012c5780632f2ff15d1461015c575b600080fd5b6100c860048036038101906100c39190610f1b565b61024e565b6040516100d59190610f63565b60405180910390f35b6100e66102c8565b6040516100f39190610f97565b60405180910390f35b61011660048036038101906101119190611131565b6102ec565b60405161012391906111d5565b60405180910390f35b6101466004803603810190610141919061121c565b6103d3565b6040516101539190610f97565b60405180910390f35b610176600480360381019061017191906112a7565b6103f2565b005b610192600480360381019061018d91906112a7565b610413565b005b6101ae60048036038101906101a991906112a7565b610496565b6040516101bb9190610f63565b60405180910390f35b6101de60048036038101906101d99190611313565b610500565b6040516101ed939291906113d7565b60405180910390f35b6101fe61069a565b60405161020b9190610f97565b60405180910390f35b61022e600480360381019061022991906112a7565b6106a1565b005b6102386106c2565b6040516102459190610f97565b60405180910390f35b60007f7965db0b000000000000000000000000000000000000000000000000000000007bffffffffffffffffffffffffffffffffffffffffffffffffffffffff1916827bffffffffffffffffffffffffffffffffffffffffffffffffffffffff191614806102c157506102c0826106e6565b5b9050919050565b7f6270edb7c868f86fda4adedba75108201087268ea345934db8bad688e1feb91b81565b60007f6270edb7c868f86fda4adedba75108201087268ea345934db8bad688e1feb91b61031881610750565b6000600180549050905085600182815481106103375761033661141c565b5b906000526020600020019080519060200190610354929190610e0c565b50846002828154811061036a5761036961141c565b5b906000526020600020019080519060200190610387929190610e0c565b50836003828154811061039d5761039c61141c565b5b90600052602060002090602091828204019190066101000a81548160ff021916908360ff16021790555080925050509392505050565b6000806000838152602001908152602001600020600101549050919050565b6103fb826103d3565b61040481610750565b61040e8383610788565b505050565b61041b610868565b73ffffffffffffffffffffffffffffffffffffffff168173ffffffffffffffffffffffffffffffffffffffff1614610488576040517f08c379a000000000000000000000000000000000000000000000000000000000815260040161047f906114bd565b60405180910390fd5b6104928282610870565b5050565b600080600084815260200190815260200160002060000160008373ffffffffffffffffffffffffffffffffffffffff1673ffffffffffffffffffffffffffffffffffffffff16815260200190815260200160002060009054906101000a900460ff16905092915050565b6060806000600184815481106105195761051861141c565b5b90600052602060002001600285815481106105375761053661141c565b5b90600052602060002001600386815481106105555761055461141c565b5b90600052602060002090602091828204019190069054906101000a900460ff168280546105819061150c565b80601f01602080910402602001604051908101604052809291908181526020018280546105ad9061150c565b80156105fa5780601f106105cf576101008083540402835291602001916105fa565b820191906000526020600020905b8154815290600101906020018083116105dd57829003601f168201915b5050505050925081805461060d9061150c565b80601f01602080910402602001604051908101604052809291908181526020018280546106399061150c565b80156106865780601f1061065b57610100808354040283529160200191610686565b820191906000526020600020905b81548152906001019060200180831161066957829003601f168201915b505050505091509250925092509193909250565b6000801b81565b6106aa826103d3565b6106b381610750565b6106bd8383610870565b505050565b7fe870e9cffded00b0b933338bc23ae12648d8d2d4829802ab37a0908f14773b4d81565b60007f01ffc9a7000000000000000000000000000000000000000000000000000000007bffffffffffffffffffffffffffffffffffffffffffffffffffffffff1916827bffffffffffffffffffffffffffffffffffffffffffffffffffffffff1916149050919050565b610758610951565b1561077b5761077661076982610981565b6107716109ad565b610a1b565b610785565b61078481610aa0565b5b50565b6107928282610496565b61086457600160008084815260200190815260200160002060000160008373ffffffffffffffffffffffffffffffffffffffff1673ffffffffffffffffffffffffffffffffffffffff16815260200190815260200160002060006101000a81548160ff021916908315150217905550610809610868565b73ffffffffffffffffffffffffffffffffffffffff168173ffffffffffffffffffffffffffffffffffffffff16837f2f8788117e7eff1d82e926ec794901d17c78024a50270940304540a733656f0d60405160405180910390a45b5050565b600033905090565b61087a8282610496565b1561094d57600080600084815260200190815260200160002060000160008373ffffffffffffffffffffffffffffffffffffffff1673ffffffffffffffffffffffffffffffffffffffff16815260200190815260200160002060006101000a81548160ff0219169083151502179055506108f2610868565b73ffffffffffffffffffffffffffffffffffffffff168173ffffffffffffffffffffffffffffffffffffffff16837ff6391f5c32d9c69d2a47ea670b442974b53935d1edc7fd64eb21e047a839171b60405160405180910390a45b5050565b600061097c7f0000000000000000000000000000000000000000000000000000000000000000610ab4565b905090565b60007fe870e9cffded00b0b933338bc23ae12648d8d2d4829802ab37a0908f14773b4d82189050919050565b60006109b7610951565b6109ed576040517f4a74df9200000000000000000000000000000000000000000000000000000000815260040160405180910390fd5b610a167f0000000000000000000000000000000000000000000000000000000000000000610aec565b905090565b610a258282610496565b610a9c57610a3281610ba3565b610a408360001c6020610bd0565b604051602001610a51929190611611565b6040516020818303038152906040526040517f08c379a0000000000000000000000000000000000000000000000000000000008152600401610a93919061164b565b60405180910390fd5b5050565b610ab181610aac610868565b610a1b565b50565b60008173ffffffffffffffffffffffffffffffffffffffff163373ffffffffffffffffffffffffffffffffffffffff16149050919050565b6000610af782610ab4565b610b2d576040517f4a74df9200000000000000000000000000000000000000000000000000000000815260040160405180910390fd5b8173ffffffffffffffffffffffffffffffffffffffff16636e296e456040518163ffffffff1660e01b8152600401602060405180830381865afa158015610b78573d6000803e3d6000fd5b505050506040513d601f19601f82011682018060405250810190610b9c9190611682565b9050919050565b6060610bc98273ffffffffffffffffffffffffffffffffffffffff16601460ff16610bd0565b9050919050565b606060006002836002610be391906116de565b610bed9190611738565b67ffffffffffffffff811115610c0657610c05610fcd565b5b6040519080825280601f01601f191660200182016040528015610c385781602001600182028036833780820191505090505b5090507f300000000000000000000000000000000000000000000000000000000000000081600081518110610c7057610c6f61141c565b5b60200101907effffffffffffffffffffffffffffffffffffffffffffffffffffffffffffff1916908160001a9053507f780000000000000000000000000000000000000000000000000000000000000081600181518110610cd457610cd361141c565b5b60200101907effffffffffffffffffffffffffffffffffffffffffffffffffffffffffffff1916908160001a90535060006001846002610d1491906116de565b610d1e9190611738565b90505b6001811115610dbe577f3031323334353637383961626364656600000000000000000000000000000000600f861660108110610d6057610d5f61141c565b5b1a60f81b828281518110610d7757610d7661141c565b5b60200101907effffffffffffffffffffffffffffffffffffffffffffffffffffffffffffff1916908160001a905350600485901c945080610db79061178e565b9050610d21565b5060008414610e02576040517f08c379a0000000000000000000000000000000000000000000000000000000008152600401610df990611803565b60405180910390fd5b8091505092915050565b828054610e189061150c565b90600052602060002090601f016020900481019282610e3a5760008555610e81565b82601f10610e5357805160ff1916838001178555610e81565b82800160010185558215610e81579182015b82811115610e80578251825591602001919060010190610e65565b5b509050610e8e9190610e92565b5090565b5b80821115610eab576000816000905550600101610e93565b5090565b6000604051905090565b600080fd5b600080fd5b60007fffffffff0000000000000000000000000000000000000000000000000000000082169050919050565b610ef881610ec3565b8114610f0357600080fd5b50565b600081359050610f1581610eef565b92915050565b600060208284031215610f3157610f30610eb9565b5b6000610f3f84828501610f06565b91505092915050565b60008115159050919050565b610f5d81610f48565b82525050565b6000602082019050610f786000830184610f54565b92915050565b6000819050919050565b610f9181610f7e565b82525050565b6000602082019050610fac6000830184610f88565b92915050565b600080fd5b600080fd5b6000601f19601f8301169050919050565b7f4e487b7100000000000000000000000000000000000000000000000000000000600052604160045260246000fd5b61100582610fbc565b810181811067ffffffffffffffff8211171561102457611023610fcd565b5b80604052505050565b6000611037610eaf565b90506110438282610ffc565b919050565b600067ffffffffffffffff82111561106357611062610fcd565b5b61106c82610fbc565b9050602081019050919050565b82818337600083830152505050565b600061109b61109684611048565b61102d565b9050828152602081018484840111156110b7576110b6610fb7565b5b6110c2848285611079565b509392505050565b600082601f8301126110df576110de610fb2565b5b81356110ef848260208601611088565b91505092915050565b600060ff82169050919050565b61110e816110f8565b811461111957600080fd5b50565b60008135905061112b81611105565b92915050565b60008060006060848603121561114a57611149610eb9565b5b600084013567ffffffffffffffff81111561116857611167610ebe565b5b611174868287016110ca565b935050602084013567ffffffffffffffff81111561119557611194610ebe565b5b6111a1868287016110ca565b92505060406111b28682870161111c565b9150509250925092565b6000819050919050565b6111cf816111bc565b82525050565b60006020820190506111ea60008301846111c6565b92915050565b6111f981610f7e565b811461120457600080fd5b50565b600081359050611216816111f0565b92915050565b60006020828403121561123257611231610eb9565b5b600061124084828501611207565b91505092915050565b600073ffffffffffffffffffffffffffffffffffffffff82169050919050565b600061127482611249565b9050919050565b61128481611269565b811461128f57600080fd5b50565b6000813590506112a18161127b565b92915050565b600080604083850312156112be576112bd610eb9565b5b60006112cc85828601611207565b92505060206112dd85828601611292565b9150509250929050565b6112f0816111bc565b81146112fb57600080fd5b50565b60008135905061130d816112e7565b92915050565b60006020828403121561132957611328610eb9565b5b6000611337848285016112fe565b91505092915050565b600081519050919050565b600082825260208201905092915050565b60005b8381101561137a57808201518184015260208101905061135f565b83811115611389576000848401525b50505050565b600061139a82611340565b6113a4818561134b565b93506113b481856020860161135c565b6113bd81610fbc565b840191505092915050565b6113d1816110f8565b82525050565b600060608201905081810360008301526113f1818661138f565b90508181036020830152611405818561138f565b905061141460408301846113c8565b949350505050565b7f4e487b7100000000000000000000000000000000000000000000000000000000600052603260045260246000fd5b7f416363657373436f6e74726f6c3a2063616e206f6e6c792072656e6f756e636560008201527f20726f6c657320666f722073656c660000000000000000000000000000000000602082015250565b60006114a7602f8361134b565b91506114b28261144b565b604082019050919050565b600060208201905081810360008301526114d68161149a565b9050919050565b7f4e487b7100000000000000000000000000000000000000000000000000000000600052602260045260246000fd5b6000600282049050600182168061152457607f821691505b602082108103611537576115366114dd565b5b50919050565b600081905092915050565b7f416363657373436f6e74726f6c3a206163636f756e7420000000000000000000600082015250565b600061157e60178361153d565b915061158982611548565b601782019050919050565b600061159f82611340565b6115a9818561153d565b93506115b981856020860161135c565b80840191505092915050565b7f206973206d697373696e6720726f6c6520000000000000000000000000000000600082015250565b60006115fb60118361153d565b9150611606826115c5565b601182019050919050565b600061161c82611571565b91506116288285611594565b9150611633826115ee565b915061163f8284611594565b91508190509392505050565b60006020820190508181036000830152611665818461138f565b905092915050565b60008151905061167c8161127b565b92915050565b60006020828403121561169857611697610eb9565b5b60006116a68482850161166d565b91505092915050565b7f4e487b7100000000000000000000000000000000000000000000000000000000600052601160045260246000fd5b60006116e9826111bc565b91506116f4836111bc565b9250817fffffffffffffffffffffffffffffffffffffffffffffffffffffffffffffffff048311821515161561172d5761172c6116af565b5b828202905092915050565b6000611743826111bc565b915061174e836111bc565b9250827fffffffffffffffffffffffffffffffffffffffffffffffffffffffffffffffff03821115611783576117826116af565b5b828201905092915050565b6000611799826111bc565b9150600082036117ac576117ab6116af565b5b600182039050919050565b7f537472696e67733a20686578206c656e67746820696e73756666696369656e74600082015250565b60006117ed60208361134b565b91506117f8826117b7565b602082019050919050565b6000602082019050818103600083015261181c816117e0565b905091905056fea264697066735822122027a13cade9f725299dfa7db0d0221fc274e1e5f9068c91494a22441e7fd59f3464736f6c634300080d0033",
  "immutableReferences": {
    "3074": [
      {
        "length": 32,
        "start": 2392
      },
      {
        "length": 32,
        "start": 2546
      }
    ]
  },
  "source": "// SPDX-License-Identifier: MIT\r\npragma solidity ^0.8.13;\r\n\r\nimport {AccessControlCrossChainOptimism} from \"./lib/AccessControlCrossChainOptimism.sol\";\r\nimport {IMaterial} from \"./interfaces/IMaterial.sol\";\r\n\r\ncontract Material is IMaterial, AccessControlCrossChainOptimism {\r\n\r\n  bytes32 public constant OWNER = keccak256(\"OWNER\");\r\n\r\n  string[] private names;\r\n  string[] private units;\r\n  uint8[] private precisions;\r\n\r\n  constructor(address crossChainMessenger) AccessControlCrossChainOptimism(crossChainMessenger){}\r\n\r\n  function create(string memory _name, string memory _unit, uint8 _precision)\r\n  public onlyRole(OWNER)\r\n  returns (uint256 materialId) {\r\n    uint256 id = names.length;\r\n    names[id] = _name;\r\n    units[id] = _unit;\r\n    precisions[id] = _precision;\r\n    return id;\r\n  }\r\n\r\n  function get(uint256 id)\r\n  public view\r\n  returns (string memory name, string memory unit, uint8 precision) {\r\n    return (names[id], units[id], precisions[id]);\r\n  }\r\n}\r\n",
  "sourcePath": "C:\\Users\\tjhar\\Enkainos\\platform-contracts\\contracts\\Material.sol",
  "compiler": {
    "name": "solc",
    "version": "0.8.13+commit.abaa5c0e.Emscripten.clang"
  },
  "schemaVersion": "3.4.13",
  "updatedAt": "2023-06-18T17:12:59.147Z",
  "devdoc": {
    "kind": "dev",
    "methods": {
      "getRoleAdmin(bytes32)": {
        "details": "Returns the admin role that controls `role`. See {grantRole} and {revokeRole}. To change a role's admin, use {_setRoleAdmin}."
      },
      "grantRole(bytes32,address)": {
        "details": "Grants `role` to `account`. If `account` had not been already granted `role`, emits a {RoleGranted} event. Requirements: - the caller must have ``role``'s admin role. May emit a {RoleGranted} event."
      },
      "hasRole(bytes32,address)": {
        "details": "Returns `true` if `account` has been granted `role`."
      },
      "renounceRole(bytes32,address)": {
        "details": "Revokes `role` from the calling account. Roles are often managed via {grantRole} and {revokeRole}: this function's purpose is to provide a mechanism for accounts to lose their privileges if they are compromised (such as when a trusted device is misplaced). If the calling account had been revoked `role`, emits a {RoleRevoked} event. Requirements: - the caller must be `account`. May emit a {RoleRevoked} event."
      },
      "revokeRole(bytes32,address)": {
        "details": "Revokes `role` from `account`. If `account` had been granted `role`, emits a {RoleRevoked} event. Requirements: - the caller must have ``role``'s admin role. May emit a {RoleRevoked} event."
      },
      "supportsInterface(bytes4)": {
        "details": "See {IERC165-supportsInterface}."
      }
    },
    "version": 1
  },
  "userdoc": {
    "kind": "user",
    "methods": {},
    "version": 1
  }
}