{
  "contractName": "Operation",
  "abi": [
    {
      "inputs": [
        {
          "internalType": "address",
          "name": "crossChainMessenger",
          "type": "address"
        }
      ],
      "stateMutability": "nonpayable",
      "type": "constructor"
    },
    {
      "inputs": [],
      "name": "NotCrossChainCall",
      "type": "error"
    },
    {
      "anonymous": false,
      "inputs": [
        {
          "indexed": true,
          "internalType": "bytes32",
          "name": "role",
          "type": "bytes32"
        },
        {
          "indexed": true,
          "internalType": "bytes32",
          "name": "previousAdminRole",
          "type": "bytes32"
        },
        {
          "indexed": true,
          "internalType": "bytes32",
          "name": "newAdminRole",
          "type": "bytes32"
        }
      ],
      "name": "RoleAdminChanged",
      "type": "event"
    },
    {
      "anonymous": false,
      "inputs": [
        {
          "indexed": true,
          "internalType": "bytes32",
          "name": "role",
          "type": "bytes32"
        },
        {
          "indexed": true,
          "internalType": "address",
          "name": "account",
          "type": "address"
        },
        {
          "indexed": true,
          "internalType": "address",
          "name": "sender",
          "type": "address"
        }
      ],
      "name": "RoleGranted",
      "type": "event"
    },
    {
      "anonymous": false,
      "inputs": [
        {
          "indexed": true,
          "internalType": "bytes32",
          "name": "role",
          "type": "bytes32"
        },
        {
          "indexed": true,
          "internalType": "address",
          "name": "account",
          "type": "address"
        },
        {
          "indexed": true,
          "internalType": "address",
          "name": "sender",
          "type": "address"
        }
      ],
      "name": "RoleRevoked",
      "type": "event"
    },
    {
      "inputs": [],
      "name": "CROSSCHAIN_ALIAS",
      "outputs": [
        {
          "internalType": "bytes32",
          "name": "",
          "type": "bytes32"
        }
      ],
      "stateMutability": "view",
      "type": "function"
    },
    {
      "inputs": [],
      "name": "DEFAULT_ADMIN_ROLE",
      "outputs": [
        {
          "internalType": "bytes32",
          "name": "",
          "type": "bytes32"
        }
      ],
      "stateMutability": "view",
      "type": "function"
    },
    {
      "inputs": [],
      "name": "OWNER",
      "outputs": [
        {
          "internalType": "bytes32",
          "name": "",
          "type": "bytes32"
        }
      ],
      "stateMutability": "view",
      "type": "function"
    },
    {
      "inputs": [
        {
          "internalType": "bytes32",
          "name": "role",
          "type": "bytes32"
        }
      ],
      "name": "getRoleAdmin",
      "outputs": [
        {
          "internalType": "bytes32",
          "name": "",
          "type": "bytes32"
        }
      ],
      "stateMutability": "view",
      "type": "function"
    },
    {
      "inputs": [
        {
          "internalType": "bytes32",
          "name": "role",
          "type": "bytes32"
        },
        {
          "internalType": "address",
          "name": "account",
          "type": "address"
        }
      ],
      "name": "grantRole",
      "outputs": [],
      "stateMutability": "nonpayable",
      "type": "function"
    },
    {
      "inputs": [
        {
          "internalType": "bytes32",
          "name": "role",
          "type": "bytes32"
        },
        {
          "internalType": "address",
          "name": "account",
          "type": "address"
        }
      ],
      "name": "hasRole",
      "outputs": [
        {
          "internalType": "bool",
          "name": "",
          "type": "bool"
        }
      ],
      "stateMutability": "view",
      "type": "function"
    },
    {
      "inputs": [
        {
          "internalType": "bytes32",
          "name": "role",
          "type": "bytes32"
        },
        {
          "internalType": "address",
          "name": "account",
          "type": "address"
        }
      ],
      "name": "renounceRole",
      "outputs": [],
      "stateMutability": "nonpayable",
      "type": "function"
    },
    {
      "inputs": [
        {
          "internalType": "bytes32",
          "name": "role",
          "type": "bytes32"
        },
        {
          "internalType": "address",
          "name": "account",
          "type": "address"
        }
      ],
      "name": "revokeRole",
      "outputs": [],
      "stateMutability": "nonpayable",
      "type": "function"
    },
    {
      "inputs": [
        {
          "internalType": "bytes4",
          "name": "interfaceId",
          "type": "bytes4"
        }
      ],
      "name": "supportsInterface",
      "outputs": [
        {
          "internalType": "bool",
          "name": "",
          "type": "bool"
        }
      ],
      "stateMutability": "view",
      "type": "function"
    },
    {
      "inputs": [
        {
          "internalType": "string",
          "name": "_name",
          "type": "string"
        },
        {
          "internalType": "uint256",
          "name": "_companyId",
          "type": "uint256"
        }
      ],
      "name": "create",
      "outputs": [
        {
          "internalType": "uint256",
          "name": "operationId",
          "type": "uint256"
        }
      ],
      "stateMutability": "nonpayable",
      "type": "function"
    },
    {
      "inputs": [
        {
          "internalType": "uint256",
          "name": "id",
          "type": "uint256"
        }
      ],
      "name": "get",
      "outputs": [
        {
          "internalType": "string",
          "name": "name",
          "type": "string"
        },
        {
          "internalType": "uint256",
          "name": "companyId",
          "type": "uint256"
        }
      ],
      "stateMutability": "view",
      "type": "function"
    }
  ],
  "bytecode": "0x60a06040523480156200001157600080fd5b50604051620017eb380380620017eb8339818101604052810190620000379190620000de565b808073ffffffffffffffffffffffffffffffffffffffff1660808173ffffffffffffffffffffffffffffffffffffffff1681525050505062000110565b600080fd5b600073ffffffffffffffffffffffffffffffffffffffff82169050919050565b6000620000a68262000079565b9050919050565b620000b88162000099565b8114620000c457600080fd5b50565b600081519050620000d881620000ad565b92915050565b600060208284031215620000f757620000f662000074565b5b60006200010784828501620000c7565b91505092915050565b6080516116b8620001336000396000818161084301526108dd01526116b86000f3fe608060405234801561001057600080fd5b50600436106100a95760003560e01c806346f81a871161007157806346f81a871461016457806391d14854146101945780639507d39a146101c4578063a217fddf146101f5578063d547741f14610213578063f9d042951461022f576100a9565b806301ffc9a7146100ae578063117803e3146100de578063248a9ca3146100fc5780632f2ff15d1461012c57806336568abe14610148575b600080fd5b6100c860048036038101906100c39190610e06565b61024d565b6040516100d59190610e4e565b60405180910390f35b6100e66102c7565b6040516100f39190610e82565b60405180910390f35b61011660048036038101906101119190610ec9565b6102eb565b6040516101239190610e82565b60405180910390f35b61014660048036038101906101419190610f54565b61030a565b005b610162600480360381019061015d9190610f54565b61032b565b005b61017e60048036038101906101799190611110565b6103ae565b60405161018b919061117b565b60405180910390f35b6101ae60048036038101906101a99190610f54565b610445565b6040516101bb9190610e4e565b60405180910390f35b6101de60048036038101906101d99190611196565b6104af565b6040516101ec92919061124b565b60405180910390f35b6101fd610585565b60405161020a9190610e82565b60405180910390f35b61022d60048036038101906102289190610f54565b61058c565b005b6102376105ad565b6040516102449190610e82565b60405180910390f35b60007f7965db0b000000000000000000000000000000000000000000000000000000007bffffffffffffffffffffffffffffffffffffffffffffffffffffffff1916827bffffffffffffffffffffffffffffffffffffffffffffffffffffffff191614806102c057506102bf826105d1565b5b9050919050565b7f6270edb7c868f86fda4adedba75108201087268ea345934db8bad688e1feb91b81565b6000806000838152602001908152602001600020600101549050919050565b610313826102eb565b61031c8161063b565b6103268383610673565b505050565b610333610753565b73ffffffffffffffffffffffffffffffffffffffff168173ffffffffffffffffffffffffffffffffffffffff16146103a0576040517f08c379a0000000000000000000000000000000000000000000000000000000008152600401610397906112ed565b60405180910390fd5b6103aa828261075b565b5050565b60007f6270edb7c868f86fda4adedba75108201087268ea345934db8bad688e1feb91b6103da8161063b565b6000600180549050905084600182815481106103f9576103f861130d565b5b906000526020600020019080519060200190610416929190610cf7565b50836002828154811061042c5761042b61130d565b5b9060005260206000200181905550809250505092915050565b600080600084815260200190815260200160002060000160008373ffffffffffffffffffffffffffffffffffffffff1673ffffffffffffffffffffffffffffffffffffffff16815260200190815260200160002060009054906101000a900460ff16905092915050565b60606000600183815481106104c7576104c661130d565b5b90600052602060002001600284815481106104e5576104e461130d565b5b90600052602060002001548180546104fc9061136b565b80601f01602080910402602001604051908101604052809291908181526020018280546105289061136b565b80156105755780601f1061054a57610100808354040283529160200191610575565b820191906000526020600020905b81548152906001019060200180831161055857829003601f168201915b5050505050915091509150915091565b6000801b81565b610595826102eb565b61059e8161063b565b6105a8838361075b565b505050565b7fe870e9cffded00b0b933338bc23ae12648d8d2d4829802ab37a0908f14773b4d81565b60007f01ffc9a7000000000000000000000000000000000000000000000000000000007bffffffffffffffffffffffffffffffffffffffffffffffffffffffff1916827bffffffffffffffffffffffffffffffffffffffffffffffffffffffff1916149050919050565b61064361083c565b15610666576106616106548261086c565b61065c610898565b610906565b610670565b61066f8161098b565b5b50565b61067d8282610445565b61074f57600160008084815260200190815260200160002060000160008373ffffffffffffffffffffffffffffffffffffffff1673ffffffffffffffffffffffffffffffffffffffff16815260200190815260200160002060006101000a81548160ff0219169083151502179055506106f4610753565b73ffffffffffffffffffffffffffffffffffffffff168173ffffffffffffffffffffffffffffffffffffffff16837f2f8788117e7eff1d82e926ec794901d17c78024a50270940304540a733656f0d60405160405180910390a45b5050565b600033905090565b6107658282610445565b1561083857600080600084815260200190815260200160002060000160008373ffffffffffffffffffffffffffffffffffffffff1673ffffffffffffffffffffffffffffffffffffffff16815260200190815260200160002060006101000a81548160ff0219169083151502179055506107dd610753565b73ffffffffffffffffffffffffffffffffffffffff168173ffffffffffffffffffffffffffffffffffffffff16837ff6391f5c32d9c69d2a47ea670b442974b53935d1edc7fd64eb21e047a839171b60405160405180910390a45b5050565b60006108677f000000000000000000000000000000000000000000000000000000000000000061099f565b905090565b60007fe870e9cffded00b0b933338bc23ae12648d8d2d4829802ab37a0908f14773b4d82189050919050565b60006108a261083c565b6108d8576040517f4a74df9200000000000000000000000000000000000000000000000000000000815260040160405180910390fd5b6109017f00000000000000000000000000000000000000000000000000000000000000006109d7565b905090565b6109108282610445565b6109875761091d81610a8e565b61092b8360001c6020610abb565b60405160200161093c929190611470565b6040516020818303038152906040526040517f08c379a000000000000000000000000000000000000000000000000000000000815260040161097e91906114aa565b60405180910390fd5b5050565b61099c81610997610753565b610906565b50565b60008173ffffffffffffffffffffffffffffffffffffffff163373ffffffffffffffffffffffffffffffffffffffff16149050919050565b60006109e28261099f565b610a18576040517f4a74df9200000000000000000000000000000000000000000000000000000000815260040160405180910390fd5b8173ffffffffffffffffffffffffffffffffffffffff16636e296e456040518163ffffffff1660e01b8152600401602060405180830381865afa158015610a63573d6000803e3d6000fd5b505050506040513d601f19601f82011682018060405250810190610a8791906114e1565b9050919050565b6060610ab48273ffffffffffffffffffffffffffffffffffffffff16601460ff16610abb565b9050919050565b606060006002836002610ace919061153d565b610ad89190611597565b67ffffffffffffffff811115610af157610af0610faf565b5b6040519080825280601f01601f191660200182016040528015610b235781602001600182028036833780820191505090505b5090507f300000000000000000000000000000000000000000000000000000000000000081600081518110610b5b57610b5a61130d565b5b60200101907effffffffffffffffffffffffffffffffffffffffffffffffffffffffffffff1916908160001a9053507f780000000000000000000000000000000000000000000000000000000000000081600181518110610bbf57610bbe61130d565b5b60200101907effffffffffffffffffffffffffffffffffffffffffffffffffffffffffffff1916908160001a90535060006001846002610bff919061153d565b610c099190611597565b90505b6001811115610ca9577f3031323334353637383961626364656600000000000000000000000000000000600f861660108110610c4b57610c4a61130d565b5b1a60f81b828281518110610c6257610c6161130d565b5b60200101907effffffffffffffffffffffffffffffffffffffffffffffffffffffffffffff1916908160001a905350600485901c945080610ca2906115ed565b9050610c0c565b5060008414610ced576040517f08c379a0000000000000000000000000000000000000000000000000000000008152600401610ce490611662565b60405180910390fd5b8091505092915050565b828054610d039061136b565b90600052602060002090601f016020900481019282610d255760008555610d6c565b82601f10610d3e57805160ff1916838001178555610d6c565b82800160010185558215610d6c579182015b82811115610d6b578251825591602001919060010190610d50565b5b509050610d799190610d7d565b5090565b5b80821115610d96576000816000905550600101610d7e565b5090565b6000604051905090565b600080fd5b600080fd5b60007fffffffff0000000000000000000000000000000000000000000000000000000082169050919050565b610de381610dae565b8114610dee57600080fd5b50565b600081359050610e0081610dda565b92915050565b600060208284031215610e1c57610e1b610da4565b5b6000610e2a84828501610df1565b91505092915050565b60008115159050919050565b610e4881610e33565b82525050565b6000602082019050610e636000830184610e3f565b92915050565b6000819050919050565b610e7c81610e69565b82525050565b6000602082019050610e976000830184610e73565b92915050565b610ea681610e69565b8114610eb157600080fd5b50565b600081359050610ec381610e9d565b92915050565b600060208284031215610edf57610ede610da4565b5b6000610eed84828501610eb4565b91505092915050565b600073ffffffffffffffffffffffffffffffffffffffff82169050919050565b6000610f2182610ef6565b9050919050565b610f3181610f16565b8114610f3c57600080fd5b50565b600081359050610f4e81610f28565b92915050565b60008060408385031215610f6b57610f6a610da4565b5b6000610f7985828601610eb4565b9250506020610f8a85828601610f3f565b9150509250929050565b600080fd5b600080fd5b6000601f19601f8301169050919050565b7f4e487b7100000000000000000000000000000000000000000000000000000000600052604160045260246000fd5b610fe782610f9e565b810181811067ffffffffffffffff8211171561100657611005610faf565b5b80604052505050565b6000611019610d9a565b90506110258282610fde565b919050565b600067ffffffffffffffff82111561104557611044610faf565b5b61104e82610f9e565b9050602081019050919050565b82818337600083830152505050565b600061107d6110788461102a565b61100f565b90508281526020810184848401111561109957611098610f99565b5b6110a484828561105b565b509392505050565b600082601f8301126110c1576110c0610f94565b5b81356110d184826020860161106a565b91505092915050565b6000819050919050565b6110ed816110da565b81146110f857600080fd5b50565b60008135905061110a816110e4565b92915050565b6000806040838503121561112757611126610da4565b5b600083013567ffffffffffffffff81111561114557611144610da9565b5b611151858286016110ac565b9250506020611162858286016110fb565b9150509250929050565b611175816110da565b82525050565b6000602082019050611190600083018461116c565b92915050565b6000602082840312156111ac576111ab610da4565b5b60006111ba848285016110fb565b91505092915050565b600081519050919050565b600082825260208201905092915050565b60005b838110156111fd5780820151818401526020810190506111e2565b8381111561120c576000848401525b50505050565b600061121d826111c3565b61122781856111ce565b93506112378185602086016111df565b61124081610f9e565b840191505092915050565b600060408201905081810360008301526112658185611212565b9050611274602083018461116c565b9392505050565b7f416363657373436f6e74726f6c3a2063616e206f6e6c792072656e6f756e636560008201527f20726f6c657320666f722073656c660000000000000000000000000000000000602082015250565b60006112d7602f836111ce565b91506112e28261127b565b604082019050919050565b60006020820190508181036000830152611306816112ca565b9050919050565b7f4e487b7100000000000000000000000000000000000000000000000000000000600052603260045260246000fd5b7f4e487b7100000000000000000000000000000000000000000000000000000000600052602260045260246000fd5b6000600282049050600182168061138357607f821691505b6020821081036113965761139561133c565b5b50919050565b600081905092915050565b7f416363657373436f6e74726f6c3a206163636f756e7420000000000000000000600082015250565b60006113dd60178361139c565b91506113e8826113a7565b601782019050919050565b60006113fe826111c3565b611408818561139c565b93506114188185602086016111df565b80840191505092915050565b7f206973206d697373696e6720726f6c6520000000000000000000000000000000600082015250565b600061145a60118361139c565b915061146582611424565b601182019050919050565b600061147b826113d0565b915061148782856113f3565b91506114928261144d565b915061149e82846113f3565b91508190509392505050565b600060208201905081810360008301526114c48184611212565b905092915050565b6000815190506114db81610f28565b92915050565b6000602082840312156114f7576114f6610da4565b5b6000611505848285016114cc565b91505092915050565b7f4e487b7100000000000000000000000000000000000000000000000000000000600052601160045260246000fd5b6000611548826110da565b9150611553836110da565b9250817fffffffffffffffffffffffffffffffffffffffffffffffffffffffffffffffff048311821515161561158c5761158b61150e565b5b828202905092915050565b60006115a2826110da565b91506115ad836110da565b9250827fffffffffffffffffffffffffffffffffffffffffffffffffffffffffffffffff038211156115e2576115e161150e565b5b828201905092915050565b60006115f8826110da565b91506000820361160b5761160a61150e565b5b600182039050919050565b7f537472696e67733a20686578206c656e67746820696e73756666696369656e74600082015250565b600061164c6020836111ce565b915061165782611616565b602082019050919050565b6000602082019050818103600083015261167b8161163f565b905091905056fea2646970667358221220833255d10bf481662bf02ca6a41a308fff200d185232aefc233fa2e4487a2fac64736f6c634300080d0033",
  "immutableReferences": {
    "3074": [
      {
        "length": 32,
        "start": 2115
      },
      {
        "length": 32,
        "start": 2269
      }
    ]
  },
  "source": "// SPDX-License-Identifier: MIT\r\npragma solidity ^0.8.13;\r\n\r\nimport {AccessControlCrossChainOptimism} from \"./lib/AccessControlCrossChainOptimism.sol\";\r\nimport {IOperation} from \"./interfaces/IOperation.sol\";\r\n\r\ncontract Operation is IOperation, AccessControlCrossChainOptimism {\r\n\r\n  bytes32 public constant OWNER = keccak256(\"OWNER\");\r\n\r\n  string[] private names;\r\n  uint256[] private companies;\r\n\r\n  constructor(address crossChainMessenger) AccessControlCrossChainOptimism(crossChainMessenger){}\r\n\r\n  function create(string memory _name, uint256 _companyId)\r\n  public onlyRole(OWNER)\r\n  returns (uint256 operationId) {\r\n    uint256 id = names.length;\r\n    names[id] = _name;\r\n    companies[id] = _companyId;\r\n    return id;\r\n  }\r\n\r\n  function get(uint256 id)\r\n  public view\r\n  returns (string memory name, uint256 companyId) {\r\n    return (names[id], companies[id]);\r\n  }\r\n}\r\n",
  "sourcePath": "C:\\Users\\tjhar\\Enkainos\\platform-contracts\\contracts\\Operation.sol",
  "compiler": {
    "name": "solc",
    "version": "0.8.13+commit.abaa5c0e.Emscripten.clang"
  },
  "schemaVersion": "3.4.13",
  "updatedAt": "2023-06-18T17:12:59.150Z",
  "devdoc": {
    "kind": "dev",
    "methods": {
      "getRoleAdmin(bytes32)": {
        "details": "Returns the admin role that controls `role`. See {grantRole} and {revokeRole}. To change a role's admin, use {_setRoleAdmin}."
      },
      "grantRole(bytes32,address)": {
        "details": "Grants `role` to `account`. If `account` had not been already granted `role`, emits a {RoleGranted} event. Requirements: - the caller must have ``role``'s admin role. May emit a {RoleGranted} event."
      },
      "hasRole(bytes32,address)": {
        "details": "Returns `true` if `account` has been granted `role`."
      },
      "renounceRole(bytes32,address)": {
        "details": "Revokes `role` from the calling account. Roles are often managed via {grantRole} and {revokeRole}: this function's purpose is to provide a mechanism for accounts to lose their privileges if they are compromised (such as when a trusted device is misplaced). If the calling account had been revoked `role`, emits a {RoleRevoked} event. Requirements: - the caller must be `account`. May emit a {RoleRevoked} event."
      },
      "revokeRole(bytes32,address)": {
        "details": "Revokes `role` from `account`. If `account` had been granted `role`, emits a {RoleRevoked} event. Requirements: - the caller must have ``role``'s admin role. May emit a {RoleRevoked} event."
      },
      "supportsInterface(bytes4)": {
        "details": "See {IERC165-supportsInterface}."
      }
    },
    "version": 1
  },
  "userdoc": {
    "kind": "user",
    "methods": {},
    "version": 1
  }
}