{
  "contractName": "Supplier",
  "abi": [
    {
      "inputs": [
        {
          "internalType": "address",
          "name": "crossChainMessenger",
          "type": "address"
        }
      ],
      "stateMutability": "nonpayable",
      "type": "constructor"
    },
    {
      "inputs": [],
      "name": "NotCrossChainCall",
      "type": "error"
    },
    {
      "anonymous": false,
      "inputs": [
        {
          "indexed": true,
          "internalType": "bytes32",
          "name": "role",
          "type": "bytes32"
        },
        {
          "indexed": true,
          "internalType": "bytes32",
          "name": "previousAdminRole",
          "type": "bytes32"
        },
        {
          "indexed": true,
          "internalType": "bytes32",
          "name": "newAdminRole",
          "type": "bytes32"
        }
      ],
      "name": "RoleAdminChanged",
      "type": "event"
    },
    {
      "anonymous": false,
      "inputs": [
        {
          "indexed": true,
          "internalType": "bytes32",
          "name": "role",
          "type": "bytes32"
        },
        {
          "indexed": true,
          "internalType": "address",
          "name": "account",
          "type": "address"
        },
        {
          "indexed": true,
          "internalType": "address",
          "name": "sender",
          "type": "address"
        }
      ],
      "name": "RoleGranted",
      "type": "event"
    },
    {
      "anonymous": false,
      "inputs": [
        {
          "indexed": true,
          "internalType": "bytes32",
          "name": "role",
          "type": "bytes32"
        },
        {
          "indexed": true,
          "internalType": "address",
          "name": "account",
          "type": "address"
        },
        {
          "indexed": true,
          "internalType": "address",
          "name": "sender",
          "type": "address"
        }
      ],
      "name": "RoleRevoked",
      "type": "event"
    },
    {
      "inputs": [],
      "name": "CROSSCHAIN_ALIAS",
      "outputs": [
        {
          "internalType": "bytes32",
          "name": "",
          "type": "bytes32"
        }
      ],
      "stateMutability": "view",
      "type": "function"
    },
    {
      "inputs": [],
      "name": "DEFAULT_ADMIN_ROLE",
      "outputs": [
        {
          "internalType": "bytes32",
          "name": "",
          "type": "bytes32"
        }
      ],
      "stateMutability": "view",
      "type": "function"
    },
    {
      "inputs": [],
      "name": "OWNER",
      "outputs": [
        {
          "internalType": "bytes32",
          "name": "",
          "type": "bytes32"
        }
      ],
      "stateMutability": "view",
      "type": "function"
    },
    {
      "inputs": [
        {
          "internalType": "bytes32",
          "name": "role",
          "type": "bytes32"
        }
      ],
      "name": "getRoleAdmin",
      "outputs": [
        {
          "internalType": "bytes32",
          "name": "",
          "type": "bytes32"
        }
      ],
      "stateMutability": "view",
      "type": "function"
    },
    {
      "inputs": [
        {
          "internalType": "bytes32",
          "name": "role",
          "type": "bytes32"
        },
        {
          "internalType": "address",
          "name": "account",
          "type": "address"
        }
      ],
      "name": "grantRole",
      "outputs": [],
      "stateMutability": "nonpayable",
      "type": "function"
    },
    {
      "inputs": [
        {
          "internalType": "bytes32",
          "name": "role",
          "type": "bytes32"
        },
        {
          "internalType": "address",
          "name": "account",
          "type": "address"
        }
      ],
      "name": "hasRole",
      "outputs": [
        {
          "internalType": "bool",
          "name": "",
          "type": "bool"
        }
      ],
      "stateMutability": "view",
      "type": "function"
    },
    {
      "inputs": [
        {
          "internalType": "bytes32",
          "name": "role",
          "type": "bytes32"
        },
        {
          "internalType": "address",
          "name": "account",
          "type": "address"
        }
      ],
      "name": "renounceRole",
      "outputs": [],
      "stateMutability": "nonpayable",
      "type": "function"
    },
    {
      "inputs": [
        {
          "internalType": "bytes32",
          "name": "role",
          "type": "bytes32"
        },
        {
          "internalType": "address",
          "name": "account",
          "type": "address"
        }
      ],
      "name": "revokeRole",
      "outputs": [],
      "stateMutability": "nonpayable",
      "type": "function"
    },
    {
      "inputs": [
        {
          "internalType": "bytes4",
          "name": "interfaceId",
          "type": "bytes4"
        }
      ],
      "name": "supportsInterface",
      "outputs": [
        {
          "internalType": "bool",
          "name": "",
          "type": "bool"
        }
      ],
      "stateMutability": "view",
      "type": "function"
    },
    {
      "inputs": [
        {
          "internalType": "string",
          "name": "_name",
          "type": "string"
        }
      ],
      "name": "create",
      "outputs": [
        {
          "internalType": "uint256",
          "name": "supplierId",
          "type": "uint256"
        }
      ],
      "stateMutability": "nonpayable",
      "type": "function"
    },
    {
      "inputs": [
        {
          "internalType": "uint256",
          "name": "id",
          "type": "uint256"
        }
      ],
      "name": "get",
      "outputs": [
        {
          "internalType": "string",
          "name": "name",
          "type": "string"
        },
        {
          "internalType": "uint256[]",
          "name": "operations",
          "type": "uint256[]"
        }
      ],
      "stateMutability": "view",
      "type": "function"
    },
    {
      "inputs": [
        {
          "internalType": "uint256",
          "name": "id",
          "type": "uint256"
        },
        {
          "internalType": "uint256",
          "name": "operationId",
          "type": "uint256"
        }
      ],
      "name": "addOperation",
      "outputs": [],
      "stateMutability": "nonpayable",
      "type": "function"
    },
    {
      "inputs": [
        {
          "internalType": "uint256",
          "name": "id",
          "type": "uint256"
        },
        {
          "internalType": "uint256",
          "name": "index",
          "type": "uint256"
        }
      ],
      "name": "removeOperation",
      "outputs": [],
      "stateMutability": "nonpayable",
      "type": "function"
    }
  ],
  "bytecode": "0x60a06040523480156200001157600080fd5b5060405162001a4a38038062001a4a8339818101604052810190620000379190620000de565b808073ffffffffffffffffffffffffffffffffffffffff1660808173ffffffffffffffffffffffffffffffffffffffff1681525050505062000110565b600080fd5b600073ffffffffffffffffffffffffffffffffffffffff82169050919050565b6000620000a68262000079565b9050919050565b620000b88162000099565b8114620000c457600080fd5b50565b600081519050620000d881620000ad565b92915050565b600060208284031215620000f757620000f662000074565b5b60006200010784828501620000c7565b91505092915050565b60805161191762000133600039600081816109b00152610a4a01526119176000f3fe608060405234801561001057600080fd5b50600436106100cf5760003560e01c806391d148541161008c578063a795a79311610066578063a795a79314610225578063b6a46b3b14610241578063d547741f14610271578063f9d042951461028d576100cf565b806391d14854146101a65780639507d39a146101d6578063a217fddf14610207576100cf565b806301ffc9a7146100d4578063117803e314610104578063248a9ca3146101225780632f2ff15d1461015257806336568abe1461016e5780635b62b5811461018a575b600080fd5b6100ee60048036038101906100e99190610f73565b6102ab565b6040516100fb9190610fbb565b60405180910390f35b61010c610325565b6040516101199190610fef565b60405180910390f35b61013c60048036038101906101379190611036565b610349565b6040516101499190610fef565b60405180910390f35b61016c600480360381019061016791906110c1565b610368565b005b610188600480360381019061018391906110c1565b610389565b005b6101a4600480360381019061019f9190611137565b61040c565b005b6101c060048036038101906101bb91906110c1565b610480565b6040516101cd9190610fbb565b60405180910390f35b6101f060048036038101906101eb9190611177565b6104ea565b6040516101fe9291906112fb565b60405180910390f35b61020f610610565b60405161021c9190610fef565b60405180910390f35b61023f600480360381019061023a9190611137565b610617565b005b61025b60048036038101906102569190611467565b610686565b60405161026891906114bf565b60405180910390f35b61028b600480360381019061028691906110c1565b6106f9565b005b61029561071a565b6040516102a29190610fef565b60405180910390f35b60007f7965db0b000000000000000000000000000000000000000000000000000000007bffffffffffffffffffffffffffffffffffffffffffffffffffffffff1916827bffffffffffffffffffffffffffffffffffffffffffffffffffffffff1916148061031e575061031d8261073e565b5b9050919050565b7f6270edb7c868f86fda4adedba75108201087268ea345934db8bad688e1feb91b81565b6000806000838152602001908152602001600020600101549050919050565b61037182610349565b61037a816107a8565b61038483836107e0565b505050565b6103916108c0565b73ffffffffffffffffffffffffffffffffffffffff168173ffffffffffffffffffffffffffffffffffffffff16146103fe576040517f08c379a00000000000000000000000000000000000000000000000000000000081526004016103f59061154c565b60405180910390fd5b61040882826108c8565b5050565b7f6270edb7c868f86fda4adedba75108201087268ea345934db8bad688e1feb91b610436816107a8565b6002838154811061044a5761044961156c565b5b90600052602060002001829080600181540180825580915050600190039060005260206000200160009091909190915055505050565b600080600084815260200190815260200160002060000160008373ffffffffffffffffffffffffffffffffffffffff1673ffffffffffffffffffffffffffffffffffffffff16815260200190815260200160002060009054906101000a900460ff16905092915050565b606080600183815481106105015761050061156c565b5b906000526020600020016002848154811061051f5761051e61156c565b5b90600052602060002001818054610535906115ca565b80601f0160208091040260200160405190810160405280929190818152602001828054610561906115ca565b80156105ae5780601f10610583576101008083540402835291602001916105ae565b820191906000526020600020905b81548152906001019060200180831161059157829003601f168201915b505050505091508080548060200260200160405190810160405280929190818152602001828054801561060057602002820191906000526020600020905b8154815260200190600101908083116105ec575b5050505050905091509150915091565b6000801b81565b7f6270edb7c868f86fda4adedba75108201087268ea345934db8bad688e1feb91b610641816107a8565b6000600284815481106106575761065661156c565b5b9060005260206000200183815481106106735761067261156c565b5b9060005260206000200181905550505050565b60007f6270edb7c868f86fda4adedba75108201087268ea345934db8bad688e1feb91b6106b2816107a8565b6000600180549050905083600182815481106106d1576106d061156c565b5b9060005260206000200190805190602001906106ee929190610e64565b508092505050919050565b61070282610349565b61070b816107a8565b61071583836108c8565b505050565b7fe870e9cffded00b0b933338bc23ae12648d8d2d4829802ab37a0908f14773b4d81565b60007f01ffc9a7000000000000000000000000000000000000000000000000000000007bffffffffffffffffffffffffffffffffffffffffffffffffffffffff1916827bffffffffffffffffffffffffffffffffffffffffffffffffffffffff1916149050919050565b6107b06109a9565b156107d3576107ce6107c1826109d9565b6107c9610a05565b610a73565b6107dd565b6107dc81610af8565b5b50565b6107ea8282610480565b6108bc57600160008084815260200190815260200160002060000160008373ffffffffffffffffffffffffffffffffffffffff1673ffffffffffffffffffffffffffffffffffffffff16815260200190815260200160002060006101000a81548160ff0219169083151502179055506108616108c0565b73ffffffffffffffffffffffffffffffffffffffff168173ffffffffffffffffffffffffffffffffffffffff16837f2f8788117e7eff1d82e926ec794901d17c78024a50270940304540a733656f0d60405160405180910390a45b5050565b600033905090565b6108d28282610480565b156109a557600080600084815260200190815260200160002060000160008373ffffffffffffffffffffffffffffffffffffffff1673ffffffffffffffffffffffffffffffffffffffff16815260200190815260200160002060006101000a81548160ff02191690831515021790555061094a6108c0565b73ffffffffffffffffffffffffffffffffffffffff168173ffffffffffffffffffffffffffffffffffffffff16837ff6391f5c32d9c69d2a47ea670b442974b53935d1edc7fd64eb21e047a839171b60405160405180910390a45b5050565b60006109d47f0000000000000000000000000000000000000000000000000000000000000000610b0c565b905090565b60007fe870e9cffded00b0b933338bc23ae12648d8d2d4829802ab37a0908f14773b4d82189050919050565b6000610a0f6109a9565b610a45576040517f4a74df9200000000000000000000000000000000000000000000000000000000815260040160405180910390fd5b610a6e7f0000000000000000000000000000000000000000000000000000000000000000610b44565b905090565b610a7d8282610480565b610af457610a8a81610bfb565b610a988360001c6020610c28565b604051602001610aa99291906116cf565b6040516020818303038152906040526040517f08c379a0000000000000000000000000000000000000000000000000000000008152600401610aeb9190611709565b60405180910390fd5b5050565b610b0981610b046108c0565b610a73565b50565b60008173ffffffffffffffffffffffffffffffffffffffff163373ffffffffffffffffffffffffffffffffffffffff16149050919050565b6000610b4f82610b0c565b610b85576040517f4a74df9200000000000000000000000000000000000000000000000000000000815260040160405180910390fd5b8173ffffffffffffffffffffffffffffffffffffffff16636e296e456040518163ffffffff1660e01b8152600401602060405180830381865afa158015610bd0573d6000803e3d6000fd5b505050506040513d601f19601f82011682018060405250810190610bf49190611740565b9050919050565b6060610c218273ffffffffffffffffffffffffffffffffffffffff16601460ff16610c28565b9050919050565b606060006002836002610c3b919061179c565b610c4591906117f6565b67ffffffffffffffff811115610c5e57610c5d61133c565b5b6040519080825280601f01601f191660200182016040528015610c905781602001600182028036833780820191505090505b5090507f300000000000000000000000000000000000000000000000000000000000000081600081518110610cc857610cc761156c565b5b60200101907effffffffffffffffffffffffffffffffffffffffffffffffffffffffffffff1916908160001a9053507f780000000000000000000000000000000000000000000000000000000000000081600181518110610d2c57610d2b61156c565b5b60200101907effffffffffffffffffffffffffffffffffffffffffffffffffffffffffffff1916908160001a90535060006001846002610d6c919061179c565b610d7691906117f6565b90505b6001811115610e16577f3031323334353637383961626364656600000000000000000000000000000000600f861660108110610db857610db761156c565b5b1a60f81b828281518110610dcf57610dce61156c565b5b60200101907effffffffffffffffffffffffffffffffffffffffffffffffffffffffffffff1916908160001a905350600485901c945080610e0f9061184c565b9050610d79565b5060008414610e5a576040517f08c379a0000000000000000000000000000000000000000000000000000000008152600401610e51906118c1565b60405180910390fd5b8091505092915050565b828054610e70906115ca565b90600052602060002090601f016020900481019282610e925760008555610ed9565b82601f10610eab57805160ff1916838001178555610ed9565b82800160010185558215610ed9579182015b82811115610ed8578251825591602001919060010190610ebd565b5b509050610ee69190610eea565b5090565b5b80821115610f03576000816000905550600101610eeb565b5090565b6000604051905090565b600080fd5b600080fd5b60007fffffffff0000000000000000000000000000000000000000000000000000000082169050919050565b610f5081610f1b565b8114610f5b57600080fd5b50565b600081359050610f6d81610f47565b92915050565b600060208284031215610f8957610f88610f11565b5b6000610f9784828501610f5e565b91505092915050565b60008115159050919050565b610fb581610fa0565b82525050565b6000602082019050610fd06000830184610fac565b92915050565b6000819050919050565b610fe981610fd6565b82525050565b60006020820190506110046000830184610fe0565b92915050565b61101381610fd6565b811461101e57600080fd5b50565b6000813590506110308161100a565b92915050565b60006020828403121561104c5761104b610f11565b5b600061105a84828501611021565b91505092915050565b600073ffffffffffffffffffffffffffffffffffffffff82169050919050565b600061108e82611063565b9050919050565b61109e81611083565b81146110a957600080fd5b50565b6000813590506110bb81611095565b92915050565b600080604083850312156110d8576110d7610f11565b5b60006110e685828601611021565b92505060206110f7858286016110ac565b9150509250929050565b6000819050919050565b61111481611101565b811461111f57600080fd5b50565b6000813590506111318161110b565b92915050565b6000806040838503121561114e5761114d610f11565b5b600061115c85828601611122565b925050602061116d85828601611122565b9150509250929050565b60006020828403121561118d5761118c610f11565b5b600061119b84828501611122565b91505092915050565b600081519050919050565b600082825260208201905092915050565b60005b838110156111de5780820151818401526020810190506111c3565b838111156111ed576000848401525b50505050565b6000601f19601f8301169050919050565b600061120f826111a4565b61121981856111af565b93506112298185602086016111c0565b611232816111f3565b840191505092915050565b600081519050919050565b600082825260208201905092915050565b6000819050602082019050919050565b61127281611101565b82525050565b60006112848383611269565b60208301905092915050565b6000602082019050919050565b60006112a88261123d565b6112b28185611248565b93506112bd83611259565b8060005b838110156112ee5781516112d58882611278565b97506112e083611290565b9250506001810190506112c1565b5085935050505092915050565b600060408201905081810360008301526113158185611204565b90508181036020830152611329818461129d565b90509392505050565b600080fd5b600080fd5b7f4e487b7100000000000000000000000000000000000000000000000000000000600052604160045260246000fd5b611374826111f3565b810181811067ffffffffffffffff821117156113935761139261133c565b5b80604052505050565b60006113a6610f07565b90506113b2828261136b565b919050565b600067ffffffffffffffff8211156113d2576113d161133c565b5b6113db826111f3565b9050602081019050919050565b82818337600083830152505050565b600061140a611405846113b7565b61139c565b90508281526020810184848401111561142657611425611337565b5b6114318482856113e8565b509392505050565b600082601f83011261144e5761144d611332565b5b813561145e8482602086016113f7565b91505092915050565b60006020828403121561147d5761147c610f11565b5b600082013567ffffffffffffffff81111561149b5761149a610f16565b5b6114a784828501611439565b91505092915050565b6114b981611101565b82525050565b60006020820190506114d460008301846114b0565b92915050565b7f416363657373436f6e74726f6c3a2063616e206f6e6c792072656e6f756e636560008201527f20726f6c657320666f722073656c660000000000000000000000000000000000602082015250565b6000611536602f836111af565b9150611541826114da565b604082019050919050565b6000602082019050818103600083015261156581611529565b9050919050565b7f4e487b7100000000000000000000000000000000000000000000000000000000600052603260045260246000fd5b7f4e487b7100000000000000000000000000000000000000000000000000000000600052602260045260246000fd5b600060028204905060018216806115e257607f821691505b6020821081036115f5576115f461159b565b5b50919050565b600081905092915050565b7f416363657373436f6e74726f6c3a206163636f756e7420000000000000000000600082015250565b600061163c6017836115fb565b915061164782611606565b601782019050919050565b600061165d826111a4565b61166781856115fb565b93506116778185602086016111c0565b80840191505092915050565b7f206973206d697373696e6720726f6c6520000000000000000000000000000000600082015250565b60006116b96011836115fb565b91506116c482611683565b601182019050919050565b60006116da8261162f565b91506116e68285611652565b91506116f1826116ac565b91506116fd8284611652565b91508190509392505050565b600060208201905081810360008301526117238184611204565b905092915050565b60008151905061173a81611095565b92915050565b60006020828403121561175657611755610f11565b5b60006117648482850161172b565b91505092915050565b7f4e487b7100000000000000000000000000000000000000000000000000000000600052601160045260246000fd5b60006117a782611101565b91506117b283611101565b9250817fffffffffffffffffffffffffffffffffffffffffffffffffffffffffffffffff04831182151516156117eb576117ea61176d565b5b828202905092915050565b600061180182611101565b915061180c83611101565b9250827fffffffffffffffffffffffffffffffffffffffffffffffffffffffffffffffff038211156118415761184061176d565b5b828201905092915050565b600061185782611101565b91506000820361186a5761186961176d565b5b600182039050919050565b7f537472696e67733a20686578206c656e67746820696e73756666696369656e74600082015250565b60006118ab6020836111af565b91506118b682611875565b602082019050919050565b600060208201905081810360008301526118da8161189e565b905091905056fea26469706673582212202d9877bfe2a059fd604830ef3f4f313d08370df7d9dd06217013a243e10b2b5f64736f6c634300080d0033",
  "immutableReferences": {
    "3074": [
      {
        "length": 32,
        "start": 2480
      },
      {
        "length": 32,
        "start": 2634
      }
    ]
  },
  "source": "// SPDX-License-Identifier: MIT\r\npragma solidity ^0.8.13;\r\n\r\nimport {AccessControlCrossChainOptimism} from \"./lib/AccessControlCrossChainOptimism.sol\";\r\nimport {ISupplier} from \"./interfaces/ISupplier.sol\";\r\n\r\ncontract Supplier is ISupplier, AccessControlCrossChainOptimism {\r\n\r\n  bytes32 public constant OWNER = keccak256(\"OWNER\");\r\n\r\n  string[] private names;\r\n  uint256[][] private operationLists;\r\n\r\n  constructor(address crossChainMessenger) AccessControlCrossChainOptimism(crossChainMessenger){}\r\n\r\n  function create(string memory _name)\r\n  public onlyRole(OWNER)\r\n  returns (uint256 supplierId) {\r\n    uint256 id = names.length;\r\n    names[id] = _name;\r\n    return id;\r\n  }\r\n\r\n  function get(uint256 id)\r\n  public view\r\n  returns (string memory name, uint256[] memory operations) {\r\n    return (names[id], operationLists[id]);\r\n  }\r\n\r\n  function addOperation(uint256 id, uint256 operationId)\r\n  public onlyRole(OWNER) {\r\n    operationLists[id].push(operationId);\r\n  }\r\n\r\n  function removeOperation(uint256 id, uint256 index)\r\n  public onlyRole(OWNER) {\r\n    operationLists[id][index] = 0; //free up data better?\r\n  }\r\n}\r\n",
  "sourcePath": "C:\\Users\\tjhar\\Enkainos\\platform-contracts\\contracts\\Supplier.sol",
  "compiler": {
    "name": "solc",
    "version": "0.8.13+commit.abaa5c0e.Emscripten.clang"
  },
  "schemaVersion": "3.4.13",
  "updatedAt": "2023-06-18T17:12:59.152Z",
  "devdoc": {
    "kind": "dev",
    "methods": {
      "getRoleAdmin(bytes32)": {
        "details": "Returns the admin role that controls `role`. See {grantRole} and {revokeRole}. To change a role's admin, use {_setRoleAdmin}."
      },
      "grantRole(bytes32,address)": {
        "details": "Grants `role` to `account`. If `account` had not been already granted `role`, emits a {RoleGranted} event. Requirements: - the caller must have ``role``'s admin role. May emit a {RoleGranted} event."
      },
      "hasRole(bytes32,address)": {
        "details": "Returns `true` if `account` has been granted `role`."
      },
      "renounceRole(bytes32,address)": {
        "details": "Revokes `role` from the calling account. Roles are often managed via {grantRole} and {revokeRole}: this function's purpose is to provide a mechanism for accounts to lose their privileges if they are compromised (such as when a trusted device is misplaced). If the calling account had been revoked `role`, emits a {RoleRevoked} event. Requirements: - the caller must be `account`. May emit a {RoleRevoked} event."
      },
      "revokeRole(bytes32,address)": {
        "details": "Revokes `role` from `account`. If `account` had been granted `role`, emits a {RoleRevoked} event. Requirements: - the caller must have ``role``'s admin role. May emit a {RoleRevoked} event."
      },
      "supportsInterface(bytes4)": {
        "details": "See {IERC165-supportsInterface}."
      }
    },
    "version": 1
  },
  "userdoc": {
    "kind": "user",
    "methods": {},
    "version": 1
  }
}