{
  "contractName": "SupplierInvoice",
  "abi": [
    {
      "inputs": [
        {
          "internalType": "address",
          "name": "crossChainMessenger",
          "type": "address"
        }
      ],
      "stateMutability": "nonpayable",
      "type": "constructor"
    },
    {
      "inputs": [],
      "name": "NotCrossChainCall",
      "type": "error"
    },
    {
      "anonymous": false,
      "inputs": [
        {
          "indexed": true,
          "internalType": "uint256",
          "name": "_id",
          "type": "uint256"
        }
      ],
      "name": "Created",
      "type": "event"
    },
    {
      "anonymous": false,
      "inputs": [
        {
          "indexed": true,
          "internalType": "bytes32",
          "name": "role",
          "type": "bytes32"
        },
        {
          "indexed": true,
          "internalType": "bytes32",
          "name": "previousAdminRole",
          "type": "bytes32"
        },
        {
          "indexed": true,
          "internalType": "bytes32",
          "name": "newAdminRole",
          "type": "bytes32"
        }
      ],
      "name": "RoleAdminChanged",
      "type": "event"
    },
    {
      "anonymous": false,
      "inputs": [
        {
          "indexed": true,
          "internalType": "bytes32",
          "name": "role",
          "type": "bytes32"
        },
        {
          "indexed": true,
          "internalType": "address",
          "name": "account",
          "type": "address"
        },
        {
          "indexed": true,
          "internalType": "address",
          "name": "sender",
          "type": "address"
        }
      ],
      "name": "RoleGranted",
      "type": "event"
    },
    {
      "anonymous": false,
      "inputs": [
        {
          "indexed": true,
          "internalType": "bytes32",
          "name": "role",
          "type": "bytes32"
        },
        {
          "indexed": true,
          "internalType": "address",
          "name": "account",
          "type": "address"
        },
        {
          "indexed": true,
          "internalType": "address",
          "name": "sender",
          "type": "address"
        }
      ],
      "name": "RoleRevoked",
      "type": "event"
    },
    {
      "inputs": [],
      "name": "CROSSCHAIN_ALIAS",
      "outputs": [
        {
          "internalType": "bytes32",
          "name": "",
          "type": "bytes32"
        }
      ],
      "stateMutability": "view",
      "type": "function",
      "constant": true
    },
    {
      "inputs": [],
      "name": "DEFAULT_ADMIN_ROLE",
      "outputs": [
        {
          "internalType": "bytes32",
          "name": "",
          "type": "bytes32"
        }
      ],
      "stateMutability": "view",
      "type": "function",
      "constant": true
    },
    {
      "inputs": [],
      "name": "OWNER",
      "outputs": [
        {
          "internalType": "bytes32",
          "name": "",
          "type": "bytes32"
        }
      ],
      "stateMutability": "view",
      "type": "function",
      "constant": true
    },
    {
      "inputs": [
        {
          "internalType": "bytes32",
          "name": "role",
          "type": "bytes32"
        }
      ],
      "name": "getRoleAdmin",
      "outputs": [
        {
          "internalType": "bytes32",
          "name": "",
          "type": "bytes32"
        }
      ],
      "stateMutability": "view",
      "type": "function",
      "constant": true
    },
    {
      "inputs": [
        {
          "internalType": "bytes32",
          "name": "role",
          "type": "bytes32"
        },
        {
          "internalType": "address",
          "name": "account",
          "type": "address"
        }
      ],
      "name": "grantRole",
      "outputs": [],
      "stateMutability": "nonpayable",
      "type": "function"
    },
    {
      "inputs": [
        {
          "internalType": "bytes32",
          "name": "role",
          "type": "bytes32"
        },
        {
          "internalType": "address",
          "name": "account",
          "type": "address"
        }
      ],
      "name": "hasRole",
      "outputs": [
        {
          "internalType": "bool",
          "name": "",
          "type": "bool"
        }
      ],
      "stateMutability": "view",
      "type": "function",
      "constant": true
    },
    {
      "inputs": [
        {
          "internalType": "bytes32",
          "name": "role",
          "type": "bytes32"
        },
        {
          "internalType": "address",
          "name": "account",
          "type": "address"
        }
      ],
      "name": "renounceRole",
      "outputs": [],
      "stateMutability": "nonpayable",
      "type": "function"
    },
    {
      "inputs": [
        {
          "internalType": "bytes32",
          "name": "role",
          "type": "bytes32"
        },
        {
          "internalType": "address",
          "name": "account",
          "type": "address"
        }
      ],
      "name": "revokeRole",
      "outputs": [],
      "stateMutability": "nonpayable",
      "type": "function"
    },
    {
      "inputs": [
        {
          "internalType": "bytes4",
          "name": "interfaceId",
          "type": "bytes4"
        }
      ],
      "name": "supportsInterface",
      "outputs": [
        {
          "internalType": "bool",
          "name": "",
          "type": "bool"
        }
      ],
      "stateMutability": "view",
      "type": "function",
      "constant": true
    },
    {
      "inputs": [
        {
          "internalType": "uint256",
          "name": "_supplierId",
          "type": "uint256"
        },
        {
          "internalType": "uint256",
          "name": "_operationId",
          "type": "uint256"
        },
        {
          "internalType": "uint256",
          "name": "_facilityId",
          "type": "uint256"
        },
        {
          "internalType": "uint256[]",
          "name": "_materials",
          "type": "uint256[]"
        },
        {
          "internalType": "uint256[]",
          "name": "_quantities",
          "type": "uint256[]"
        },
        {
          "internalType": "uint256",
          "name": "_timestamp",
          "type": "uint256"
        }
      ],
      "name": "create",
      "outputs": [
        {
          "internalType": "uint256",
          "name": "supplierInvoiceId",
          "type": "uint256"
        }
      ],
      "stateMutability": "nonpayable",
      "type": "function"
    },
    {
      "inputs": [
        {
          "internalType": "uint256",
          "name": "id",
          "type": "uint256"
        }
      ],
      "name": "get",
      "outputs": [
        {
          "internalType": "uint256",
          "name": "supplierId",
          "type": "uint256"
        },
        {
          "internalType": "uint256",
          "name": "operationId",
          "type": "uint256"
        },
        {
          "internalType": "uint256",
          "name": "facilityId",
          "type": "uint256"
        },
        {
          "internalType": "uint256[]",
          "name": "materials",
          "type": "uint256[]"
        },
        {
          "internalType": "uint256[]",
          "name": "quantities",
          "type": "uint256[]"
        },
        {
          "internalType": "uint256",
          "name": "timestamp",
          "type": "uint256"
        }
      ],
      "stateMutability": "view",
      "type": "function",
      "constant": true
    }
  ],
  "bytecode": "0x60a06040523480156200001157600080fd5b5060405162001c0038038062001c00833981810160405281019062000037919062000273565b808073ffffffffffffffffffffffffffffffffffffffff1660808173ffffffffffffffffffffffffffffffffffffffff1681525050506200009f7f6270edb7c868f86fda4adedba75108201087268ea345934db8bad688e1feb91b33620000a660201b60201c565b50620002a5565b620000b882826200019760201b60201c565b6200019357600160008084815260200190815260200160002060000160008373ffffffffffffffffffffffffffffffffffffffff1673ffffffffffffffffffffffffffffffffffffffff16815260200190815260200160002060006101000a81548160ff021916908315150217905550620001386200020160201b60201c565b73ffffffffffffffffffffffffffffffffffffffff168173ffffffffffffffffffffffffffffffffffffffff16837f2f8788117e7eff1d82e926ec794901d17c78024a50270940304540a733656f0d60405160405180910390a45b5050565b600080600084815260200190815260200160002060000160008373ffffffffffffffffffffffffffffffffffffffff1673ffffffffffffffffffffffffffffffffffffffff16815260200190815260200160002060009054906101000a900460ff16905092915050565b600033905090565b600080fd5b600073ffffffffffffffffffffffffffffffffffffffff82169050919050565b60006200023b826200020e565b9050919050565b6200024d816200022e565b81146200025957600080fd5b50565b6000815190506200026d8162000242565b92915050565b6000602082840312156200028c576200028b62000209565b5b60006200029c848285016200025c565b91505092915050565b608051611938620002c8600039600081816109e30152610a7d01526119386000f3fe608060405234801561001057600080fd5b50600436106100a95760003560e01c806391d148541161007157806391d14854146101645780639507d39a14610194578063a217fddf146101c9578063c8ba22ad146101e7578063d547741f14610217578063f9d0429514610233576100a9565b806301ffc9a7146100ae578063117803e3146100de578063248a9ca3146100fc5780632f2ff15d1461012c57806336568abe14610148575b600080fd5b6100c860048036038101906100c39190610f6d565b610251565b6040516100d59190610fb5565b60405180910390f35b6100e66102cb565b6040516100f39190610fe9565b60405180910390f35b61011660048036038101906101119190611030565b6102ef565b6040516101239190610fe9565b60405180910390f35b610146600480360381019061014191906110bb565b61030e565b005b610162600480360381019061015d91906110bb565b61032f565b005b61017e600480360381019061017991906110bb565b6103b2565b60405161018b9190610fb5565b60405180910390f35b6101ae60048036038101906101a99190611131565b61041c565b6040516101c09695949392919061122b565b60405180910390f35b6101d1610597565b6040516101de9190610fe9565b60405180910390f35b61020160048036038101906101fc91906113f3565b61059e565b60405161020e91906114b8565b60405180910390f35b610231600480360381019061022c91906110bb565b61072c565b005b61023b61074d565b6040516102489190610fe9565b60405180910390f35b60007f7965db0b000000000000000000000000000000000000000000000000000000007bffffffffffffffffffffffffffffffffffffffffffffffffffffffff1916827bffffffffffffffffffffffffffffffffffffffffffffffffffffffff191614806102c457506102c382610771565b5b9050919050565b7f6270edb7c868f86fda4adedba75108201087268ea345934db8bad688e1feb91b81565b6000806000838152602001908152602001600020600101549050919050565b610317826102ef565b610320816107db565b61032a8383610813565b505050565b6103376108f3565b73ffffffffffffffffffffffffffffffffffffffff168173ffffffffffffffffffffffffffffffffffffffff16146103a4576040517f08c379a000000000000000000000000000000000000000000000000000000000815260040161039b90611556565b60405180910390fd5b6103ae82826108fb565b5050565b600080600084815260200190815260200160002060000160008373ffffffffffffffffffffffffffffffffffffffff1673ffffffffffffffffffffffffffffffffffffffff16815260200190815260200160002060009054906101000a900460ff16905092915050565b600080600060608060006001878154811061043a57610439611576565b5b90600052602060002001546002888154811061045957610458611576565b5b90600052602060002001546003898154811061047857610477611576565b5b906000526020600020015460048a8154811061049757610496611576565b5b9060005260206000200160058b815481106104b5576104b4611576565b5b9060005260206000200160068c815481106104d3576104d2611576565b5b90600052602060002001548280548060200260200160405190810160405280929190818152602001828054801561052957602002820191906000526020600020905b815481526020019060010190808311610515575b505050505092508180548060200260200160405190810160405280929190818152602001828054801561057b57602002820191906000526020600020905b815481526020019060010190808311610567575b5050505050915095509550955095509550955091939550919395565b6000801b81565b60007f6270edb7c868f86fda4adedba75108201087268ea345934db8bad688e1feb91b6105ca816107db565b6000600180549050905060018990806001815401808255809150506001900390600052602060002001600090919091909150556002889080600181540180825580915050600190039060005260206000200160009091909190915055600387908060018154018082558091505060019003906000526020600020016000909190919091505560048690806001815401808255809150506001900390600052602060002001600090919091909150908051906020019061068a929190610e97565b506005859080600181540180825580915050600190039060005260206000200160009091909190915090805190602001906106c6929190610e97565b506006849080600181540180825580915050600190039060005260206000200160009091909190915055807f06acbfb32bcf8383f3b0a768b70ac9ec234ea0f2d3b9c77fa6a2de69b919aad160405160405180910390a280925050509695505050505050565b610735826102ef565b61073e816107db565b61074883836108fb565b505050565b7fe870e9cffded00b0b933338bc23ae12648d8d2d4829802ab37a0908f14773b4d81565b60007f01ffc9a7000000000000000000000000000000000000000000000000000000007bffffffffffffffffffffffffffffffffffffffffffffffffffffffff1916827bffffffffffffffffffffffffffffffffffffffffffffffffffffffff1916149050919050565b6107e36109dc565b15610806576108016107f482610a0c565b6107fc610a38565b610aa6565b610810565b61080f81610b2b565b5b50565b61081d82826103b2565b6108ef57600160008084815260200190815260200160002060000160008373ffffffffffffffffffffffffffffffffffffffff1673ffffffffffffffffffffffffffffffffffffffff16815260200190815260200160002060006101000a81548160ff0219169083151502179055506108946108f3565b73ffffffffffffffffffffffffffffffffffffffff168173ffffffffffffffffffffffffffffffffffffffff16837f2f8788117e7eff1d82e926ec794901d17c78024a50270940304540a733656f0d60405160405180910390a45b5050565b600033905090565b61090582826103b2565b156109d857600080600084815260200190815260200160002060000160008373ffffffffffffffffffffffffffffffffffffffff1673ffffffffffffffffffffffffffffffffffffffff16815260200190815260200160002060006101000a81548160ff02191690831515021790555061097d6108f3565b73ffffffffffffffffffffffffffffffffffffffff168173ffffffffffffffffffffffffffffffffffffffff16837ff6391f5c32d9c69d2a47ea670b442974b53935d1edc7fd64eb21e047a839171b60405160405180910390a45b5050565b6000610a077f0000000000000000000000000000000000000000000000000000000000000000610b3f565b905090565b60007fe870e9cffded00b0b933338bc23ae12648d8d2d4829802ab37a0908f14773b4d82189050919050565b6000610a426109dc565b610a78576040517f4a74df9200000000000000000000000000000000000000000000000000000000815260040160405180910390fd5b610aa17f0000000000000000000000000000000000000000000000000000000000000000610b77565b905090565b610ab082826103b2565b610b2757610abd81610c2e565b610acb8360001c6020610c5b565b604051602001610adc9291906116b7565b6040516020818303038152906040526040517f08c379a0000000000000000000000000000000000000000000000000000000008152600401610b1e919061172a565b60405180910390fd5b5050565b610b3c81610b376108f3565b610aa6565b50565b60008173ffffffffffffffffffffffffffffffffffffffff163373ffffffffffffffffffffffffffffffffffffffff16149050919050565b6000610b8282610b3f565b610bb8576040517f4a74df9200000000000000000000000000000000000000000000000000000000815260040160405180910390fd5b8173ffffffffffffffffffffffffffffffffffffffff16636e296e456040518163ffffffff1660e01b8152600401602060405180830381865afa158015610c03573d6000803e3d6000fd5b505050506040513d601f19601f82011682018060405250810190610c279190611761565b9050919050565b6060610c548273ffffffffffffffffffffffffffffffffffffffff16601460ff16610c5b565b9050919050565b606060006002836002610c6e91906117bd565b610c789190611817565b67ffffffffffffffff811115610c9157610c906112b0565b5b6040519080825280601f01601f191660200182016040528015610cc35781602001600182028036833780820191505090505b5090507f300000000000000000000000000000000000000000000000000000000000000081600081518110610cfb57610cfa611576565b5b60200101907effffffffffffffffffffffffffffffffffffffffffffffffffffffffffffff1916908160001a9053507f780000000000000000000000000000000000000000000000000000000000000081600181518110610d5f57610d5e611576565b5b60200101907effffffffffffffffffffffffffffffffffffffffffffffffffffffffffffff1916908160001a90535060006001846002610d9f91906117bd565b610da99190611817565b90505b6001811115610e49577f3031323334353637383961626364656600000000000000000000000000000000600f861660108110610deb57610dea611576565b5b1a60f81b828281518110610e0257610e01611576565b5b60200101907effffffffffffffffffffffffffffffffffffffffffffffffffffffffffffff1916908160001a905350600485901c945080610e429061186d565b9050610dac565b5060008414610e8d576040517f08c379a0000000000000000000000000000000000000000000000000000000008152600401610e84906118e2565b60405180910390fd5b8091505092915050565b828054828255906000526020600020908101928215610ed3579160200282015b82811115610ed2578251825591602001919060010190610eb7565b5b509050610ee09190610ee4565b5090565b5b80821115610efd576000816000905550600101610ee5565b5090565b6000604051905090565b600080fd5b600080fd5b60007fffffffff0000000000000000000000000000000000000000000000000000000082169050919050565b610f4a81610f15565b8114610f5557600080fd5b50565b600081359050610f6781610f41565b92915050565b600060208284031215610f8357610f82610f0b565b5b6000610f9184828501610f58565b91505092915050565b60008115159050919050565b610faf81610f9a565b82525050565b6000602082019050610fca6000830184610fa6565b92915050565b6000819050919050565b610fe381610fd0565b82525050565b6000602082019050610ffe6000830184610fda565b92915050565b61100d81610fd0565b811461101857600080fd5b50565b60008135905061102a81611004565b92915050565b60006020828403121561104657611045610f0b565b5b60006110548482850161101b565b91505092915050565b600073ffffffffffffffffffffffffffffffffffffffff82169050919050565b60006110888261105d565b9050919050565b6110988161107d565b81146110a357600080fd5b50565b6000813590506110b58161108f565b92915050565b600080604083850312156110d2576110d1610f0b565b5b60006110e08582860161101b565b92505060206110f1858286016110a6565b9150509250929050565b6000819050919050565b61110e816110fb565b811461111957600080fd5b50565b60008135905061112b81611105565b92915050565b60006020828403121561114757611146610f0b565b5b60006111558482850161111c565b91505092915050565b611167816110fb565b82525050565b600081519050919050565b600082825260208201905092915050565b6000819050602082019050919050565b6111a2816110fb565b82525050565b60006111b48383611199565b60208301905092915050565b6000602082019050919050565b60006111d88261116d565b6111e28185611178565b93506111ed83611189565b8060005b8381101561121e57815161120588826111a8565b9750611210836111c0565b9250506001810190506111f1565b5085935050505092915050565b600060c082019050611240600083018961115e565b61124d602083018861115e565b61125a604083018761115e565b818103606083015261126c81866111cd565b9050818103608083015261128081856111cd565b905061128f60a083018461115e565b979650505050505050565b600080fd5b6000601f19601f8301169050919050565b7f4e487b7100000000000000000000000000000000000000000000000000000000600052604160045260246000fd5b6112e88261129f565b810181811067ffffffffffffffff82111715611307576113066112b0565b5b80604052505050565b600061131a610f01565b905061132682826112df565b919050565b600067ffffffffffffffff821115611346576113456112b0565b5b602082029050602081019050919050565b600080fd5b600061136f61136a8461132b565b611310565b9050808382526020820190506020840283018581111561139257611391611357565b5b835b818110156113bb57806113a7888261111c565b845260208401935050602081019050611394565b5050509392505050565b600082601f8301126113da576113d961129a565b5b81356113ea84826020860161135c565b91505092915050565b60008060008060008060c087890312156114105761140f610f0b565b5b600061141e89828a0161111c565b965050602061142f89828a0161111c565b955050604061144089828a0161111c565b945050606087013567ffffffffffffffff81111561146157611460610f10565b5b61146d89828a016113c5565b935050608087013567ffffffffffffffff81111561148e5761148d610f10565b5b61149a89828a016113c5565b92505060a06114ab89828a0161111c565b9150509295509295509295565b60006020820190506114cd600083018461115e565b92915050565b600082825260208201905092915050565b7f416363657373436f6e74726f6c3a2063616e206f6e6c792072656e6f756e636560008201527f20726f6c657320666f722073656c660000000000000000000000000000000000602082015250565b6000611540602f836114d3565b915061154b826114e4565b604082019050919050565b6000602082019050818103600083015261156f81611533565b9050919050565b7f4e487b7100000000000000000000000000000000000000000000000000000000600052603260045260246000fd5b600081905092915050565b7f416363657373436f6e74726f6c3a206163636f756e7420000000000000000000600082015250565b60006115e66017836115a5565b91506115f1826115b0565b601782019050919050565b600081519050919050565b60005b8381101561162557808201518184015260208101905061160a565b83811115611634576000848401525b50505050565b6000611645826115fc565b61164f81856115a5565b935061165f818560208601611607565b80840191505092915050565b7f206973206d697373696e6720726f6c6520000000000000000000000000000000600082015250565b60006116a16011836115a5565b91506116ac8261166b565b601182019050919050565b60006116c2826115d9565b91506116ce828561163a565b91506116d982611694565b91506116e5828461163a565b91508190509392505050565b60006116fc826115fc565b61170681856114d3565b9350611716818560208601611607565b61171f8161129f565b840191505092915050565b6000602082019050818103600083015261174481846116f1565b905092915050565b60008151905061175b8161108f565b92915050565b60006020828403121561177757611776610f0b565b5b60006117858482850161174c565b91505092915050565b7f4e487b7100000000000000000000000000000000000000000000000000000000600052601160045260246000fd5b60006117c8826110fb565b91506117d3836110fb565b9250817fffffffffffffffffffffffffffffffffffffffffffffffffffffffffffffffff048311821515161561180c5761180b61178e565b5b828202905092915050565b6000611822826110fb565b915061182d836110fb565b9250827fffffffffffffffffffffffffffffffffffffffffffffffffffffffffffffffff038211156118625761186161178e565b5b828201905092915050565b6000611878826110fb565b91506000820361188b5761188a61178e565b5b600182039050919050565b7f537472696e67733a20686578206c656e67746820696e73756666696369656e74600082015250565b60006118cc6020836114d3565b91506118d782611896565b602082019050919050565b600060208201905081810360008301526118fb816118bf565b905091905056fea264697066735822122093257131014e84f09f98890286547c0039d1d7d3e419c1f28136e8f5ead6b36f64736f6c634300080d0033",
  "immutableReferences": {
    "3484": [
      {
        "length": 32,
        "start": 2531
      },
      {
        "length": 32,
        "start": 2685
      }
    ]
  },
  "source": "// SPDX-License-Identifier: MIT\r\npragma solidity ^0.8.13;\r\n\r\nimport {AccessControlCrossChainOptimism} from \"./lib/AccessControlCrossChainOptimism.sol\";\r\nimport {ISupplierInvoice} from \"./interfaces/ISupplierInvoice.sol\";\r\n\r\ncontract SupplierInvoice is ISupplierInvoice, AccessControlCrossChainOptimism {\r\n\r\n  bytes32 public constant OWNER = keccak256(\"OWNER\");\r\n\r\n  uint256[] private suppliers;\r\n  uint256[] private operations;\r\n  uint256[] private facilities;\r\n  uint256[][] private materialLists;\r\n  uint256[][] private quantityLists;\r\n  uint256[] private timestamps;\r\n\r\n  event Created(uint256 indexed _id);\r\n\r\n  constructor(address crossChainMessenger) AccessControlCrossChainOptimism(crossChainMessenger){\r\n    _grantRole(OWNER, msg.sender);\r\n  }\r\n\r\n  function create(\r\n    uint256 _supplierId,\r\n    uint256 _operationId,\r\n    uint256 _facilityId,\r\n    uint256[] memory _materials,\r\n    uint256[] memory _quantities,\r\n    uint256 _timestamp\r\n  )\r\n  public onlyRole(OWNER)\r\n  returns (uint256 supplierInvoiceId){\r\n    uint256 id = suppliers.length;\r\n    suppliers.push(_supplierId);\r\n    operations.push(_operationId);\r\n    facilities.push(_facilityId);\r\n    materialLists.push(_materials);\r\n    quantityLists.push(_quantities);\r\n    timestamps.push(_timestamp);\r\n    emit Created(id);\r\n    return id;\r\n  }\r\n\r\n  function get(uint256 id)\r\n  public view\r\n  returns (\r\n    uint256 supplierId,\r\n    uint256 operationId,\r\n    uint256 facilityId,\r\n    uint256[] memory materials,\r\n    uint256[] memory quantities,\r\n    uint256 timestamp\r\n  ) {\r\n    return (suppliers[id], operations[id], facilities[id], materialLists[id], quantityLists[id], timestamps[id]);\r\n  }\r\n}\r\n",
  "sourcePath": "C:\\Users\\tjhar\\Enkainos\\platform-contracts\\contracts\\SupplierInvoice.sol",
  "compiler": {
    "name": "solc",
    "version": "0.8.13+commit.abaa5c0e.Emscripten.clang"
  },
  "schemaVersion": "3.4.13",
  "updatedAt": "2023-07-08T16:00:24.860Z",
  "networkType": "ethereum",
  "devdoc": {
    "kind": "dev",
    "methods": {
      "getRoleAdmin(bytes32)": {
        "details": "Returns the admin role that controls `role`. See {grantRole} and {revokeRole}. To change a role's admin, use {_setRoleAdmin}."
      },
      "grantRole(bytes32,address)": {
        "details": "Grants `role` to `account`. If `account` had not been already granted `role`, emits a {RoleGranted} event. Requirements: - the caller must have ``role``'s admin role. May emit a {RoleGranted} event."
      },
      "hasRole(bytes32,address)": {
        "details": "Returns `true` if `account` has been granted `role`."
      },
      "renounceRole(bytes32,address)": {
        "details": "Revokes `role` from the calling account. Roles are often managed via {grantRole} and {revokeRole}: this function's purpose is to provide a mechanism for accounts to lose their privileges if they are compromised (such as when a trusted device is misplaced). If the calling account had been revoked `role`, emits a {RoleRevoked} event. Requirements: - the caller must be `account`. May emit a {RoleRevoked} event."
      },
      "revokeRole(bytes32,address)": {
        "details": "Revokes `role` from `account`. If `account` had been granted `role`, emits a {RoleRevoked} event. Requirements: - the caller must have ``role``'s admin role. May emit a {RoleRevoked} event."
      },
      "supportsInterface(bytes4)": {
        "details": "See {IERC165-supportsInterface}."
      }
    },
    "version": 1
  },
  "userdoc": {
    "kind": "user",
    "methods": {},
    "version": 1
  }
}