{
  "contractName": "SupplierInvoiceDocument",
  "abi": [
    {
      "inputs": [
        {
          "internalType": "address",
          "name": "crossChainMessenger",
          "type": "address"
        }
      ],
      "stateMutability": "nonpayable",
      "type": "constructor"
    },
    {
      "inputs": [],
      "name": "NotCrossChainCall",
      "type": "error"
    },
    {
      "anonymous": false,
      "inputs": [
        {
          "indexed": true,
          "internalType": "uint256",
          "name": "_id",
          "type": "uint256"
        }
      ],
      "name": "Created",
      "type": "event"
    },
    {
      "anonymous": false,
      "inputs": [
        {
          "indexed": true,
          "internalType": "bytes32",
          "name": "role",
          "type": "bytes32"
        },
        {
          "indexed": true,
          "internalType": "bytes32",
          "name": "previousAdminRole",
          "type": "bytes32"
        },
        {
          "indexed": true,
          "internalType": "bytes32",
          "name": "newAdminRole",
          "type": "bytes32"
        }
      ],
      "name": "RoleAdminChanged",
      "type": "event"
    },
    {
      "anonymous": false,
      "inputs": [
        {
          "indexed": true,
          "internalType": "bytes32",
          "name": "role",
          "type": "bytes32"
        },
        {
          "indexed": true,
          "internalType": "address",
          "name": "account",
          "type": "address"
        },
        {
          "indexed": true,
          "internalType": "address",
          "name": "sender",
          "type": "address"
        }
      ],
      "name": "RoleGranted",
      "type": "event"
    },
    {
      "anonymous": false,
      "inputs": [
        {
          "indexed": true,
          "internalType": "bytes32",
          "name": "role",
          "type": "bytes32"
        },
        {
          "indexed": true,
          "internalType": "address",
          "name": "account",
          "type": "address"
        },
        {
          "indexed": true,
          "internalType": "address",
          "name": "sender",
          "type": "address"
        }
      ],
      "name": "RoleRevoked",
      "type": "event"
    },
    {
      "inputs": [],
      "name": "CROSSCHAIN_ALIAS",
      "outputs": [
        {
          "internalType": "bytes32",
          "name": "",
          "type": "bytes32"
        }
      ],
      "stateMutability": "view",
      "type": "function",
      "constant": true
    },
    {
      "inputs": [],
      "name": "DEFAULT_ADMIN_ROLE",
      "outputs": [
        {
          "internalType": "bytes32",
          "name": "",
          "type": "bytes32"
        }
      ],
      "stateMutability": "view",
      "type": "function",
      "constant": true
    },
    {
      "inputs": [],
      "name": "OWNER",
      "outputs": [
        {
          "internalType": "bytes32",
          "name": "",
          "type": "bytes32"
        }
      ],
      "stateMutability": "view",
      "type": "function",
      "constant": true
    },
    {
      "inputs": [
        {
          "internalType": "bytes32",
          "name": "role",
          "type": "bytes32"
        }
      ],
      "name": "getRoleAdmin",
      "outputs": [
        {
          "internalType": "bytes32",
          "name": "",
          "type": "bytes32"
        }
      ],
      "stateMutability": "view",
      "type": "function",
      "constant": true
    },
    {
      "inputs": [
        {
          "internalType": "bytes32",
          "name": "role",
          "type": "bytes32"
        },
        {
          "internalType": "address",
          "name": "account",
          "type": "address"
        }
      ],
      "name": "grantRole",
      "outputs": [],
      "stateMutability": "nonpayable",
      "type": "function"
    },
    {
      "inputs": [
        {
          "internalType": "bytes32",
          "name": "role",
          "type": "bytes32"
        },
        {
          "internalType": "address",
          "name": "account",
          "type": "address"
        }
      ],
      "name": "hasRole",
      "outputs": [
        {
          "internalType": "bool",
          "name": "",
          "type": "bool"
        }
      ],
      "stateMutability": "view",
      "type": "function",
      "constant": true
    },
    {
      "inputs": [
        {
          "internalType": "bytes32",
          "name": "role",
          "type": "bytes32"
        },
        {
          "internalType": "address",
          "name": "account",
          "type": "address"
        }
      ],
      "name": "renounceRole",
      "outputs": [],
      "stateMutability": "nonpayable",
      "type": "function"
    },
    {
      "inputs": [
        {
          "internalType": "bytes32",
          "name": "role",
          "type": "bytes32"
        },
        {
          "internalType": "address",
          "name": "account",
          "type": "address"
        }
      ],
      "name": "revokeRole",
      "outputs": [],
      "stateMutability": "nonpayable",
      "type": "function"
    },
    {
      "inputs": [
        {
          "internalType": "bytes4",
          "name": "interfaceId",
          "type": "bytes4"
        }
      ],
      "name": "supportsInterface",
      "outputs": [
        {
          "internalType": "bool",
          "name": "",
          "type": "bool"
        }
      ],
      "stateMutability": "view",
      "type": "function",
      "constant": true
    },
    {
      "inputs": [
        {
          "internalType": "uint256",
          "name": "_invoiceId",
          "type": "uint256"
        },
        {
          "internalType": "string",
          "name": "_documentUrl",
          "type": "string"
        }
      ],
      "name": "create",
      "outputs": [
        {
          "internalType": "uint256",
          "name": "supplierInvoiceDocumentId",
          "type": "uint256"
        }
      ],
      "stateMutability": "nonpayable",
      "type": "function"
    },
    {
      "inputs": [
        {
          "internalType": "uint256",
          "name": "id",
          "type": "uint256"
        }
      ],
      "name": "get",
      "outputs": [
        {
          "internalType": "uint256",
          "name": "invoiceId",
          "type": "uint256"
        },
        {
          "internalType": "string",
          "name": "documentUrl",
          "type": "string"
        }
      ],
      "stateMutability": "view",
      "type": "function",
      "constant": true
    }
  ],
  "bytecode": "0x60a06040523480156200001157600080fd5b50604051620019bc380380620019bc833981810160405281019062000037919062000273565b808073ffffffffffffffffffffffffffffffffffffffff1660808173ffffffffffffffffffffffffffffffffffffffff1681525050506200009f7f6270edb7c868f86fda4adedba75108201087268ea345934db8bad688e1feb91b33620000a660201b60201c565b50620002a5565b620000b882826200019760201b60201c565b6200019357600160008084815260200190815260200160002060000160008373ffffffffffffffffffffffffffffffffffffffff1673ffffffffffffffffffffffffffffffffffffffff16815260200190815260200160002060006101000a81548160ff021916908315150217905550620001386200020160201b60201c565b73ffffffffffffffffffffffffffffffffffffffff168173ffffffffffffffffffffffffffffffffffffffff16837f2f8788117e7eff1d82e926ec794901d17c78024a50270940304540a733656f0d60405160405180910390a45b5050565b600080600084815260200190815260200160002060000160008373ffffffffffffffffffffffffffffffffffffffff1673ffffffffffffffffffffffffffffffffffffffff16815260200190815260200160002060009054906101000a900460ff16905092915050565b600033905090565b600080fd5b600073ffffffffffffffffffffffffffffffffffffffff82169050919050565b60006200023b826200020e565b9050919050565b6200024d816200022e565b81146200025957600080fd5b50565b6000815190506200026d8162000242565b92915050565b6000602082840312156200028c576200028b62000209565b5b60006200029c848285016200025c565b91505092915050565b6080516116f4620002c86000396000818161087f015261091901526116f46000f3fe608060405234801561001057600080fd5b50600436106100a95760003560e01c806336568abe1161007157806336568abe1461017857806391d14854146101945780639507d39a146101c4578063a217fddf146101f5578063d547741f14610213578063f9d042951461022f576100a9565b80630118fa49146100ae57806301ffc9a7146100de578063117803e31461010e578063248a9ca31461012c5780632f2ff15d1461015c575b600080fd5b6100c860048036038101906100c39190610f66565b61024d565b6040516100d59190610fd1565b60405180910390f35b6100f860048036038101906100f39190611044565b610320565b604051610105919061108c565b60405180910390f35b61011661039a565b60405161012391906110c0565b60405180910390f35b61014660048036038101906101419190611107565b6103be565b60405161015391906110c0565b60405180910390f35b61017660048036038101906101719190611192565b6103dd565b005b610192600480360381019061018d9190611192565b6103fe565b005b6101ae60048036038101906101a99190611192565b610481565b6040516101bb919061108c565b60405180910390f35b6101de60048036038101906101d991906111d2565b6104eb565b6040516101ec929190611287565b60405180910390f35b6101fd6105c1565b60405161020a91906110c0565b60405180910390f35b61022d60048036038101906102289190611192565b6105c8565b005b6102376105e9565b60405161024491906110c0565b60405180910390f35b60007f6270edb7c868f86fda4adedba75108201087268ea345934db8bad688e1feb91b6102798161060d565b6000600180549050905060018590806001815401808255809150506001900390600052602060002001600090919091909150556002849080600181540180825580915050600190039060005260206000200160009091909190915090805190602001906102e7929190610d33565b50807f06acbfb32bcf8383f3b0a768b70ac9ec234ea0f2d3b9c77fa6a2de69b919aad160405160405180910390a2809250505092915050565b60007f7965db0b000000000000000000000000000000000000000000000000000000007bffffffffffffffffffffffffffffffffffffffffffffffffffffffff1916827bffffffffffffffffffffffffffffffffffffffffffffffffffffffff19161480610393575061039282610645565b5b9050919050565b7f6270edb7c868f86fda4adedba75108201087268ea345934db8bad688e1feb91b81565b6000806000838152602001908152602001600020600101549050919050565b6103e6826103be565b6103ef8161060d565b6103f983836106af565b505050565b61040661078f565b73ffffffffffffffffffffffffffffffffffffffff168173ffffffffffffffffffffffffffffffffffffffff1614610473576040517f08c379a000000000000000000000000000000000000000000000000000000000815260040161046a90611329565b60405180910390fd5b61047d8282610797565b5050565b600080600084815260200190815260200160002060000160008373ffffffffffffffffffffffffffffffffffffffff1673ffffffffffffffffffffffffffffffffffffffff16815260200190815260200160002060009054906101000a900460ff16905092915050565b600060606001838154811061050357610502611349565b5b90600052602060002001546002848154811061052257610521611349565b5b90600052602060002001808054610538906113a7565b80601f0160208091040260200160405190810160405280929190818152602001828054610564906113a7565b80156105b15780601f10610586576101008083540402835291602001916105b1565b820191906000526020600020905b81548152906001019060200180831161059457829003601f168201915b5050505050905091509150915091565b6000801b81565b6105d1826103be565b6105da8161060d565b6105e48383610797565b505050565b7fe870e9cffded00b0b933338bc23ae12648d8d2d4829802ab37a0908f14773b4d81565b610615610878565b1561063857610633610626826108a8565b61062e6108d4565b610942565b610642565b610641816109c7565b5b50565b60007f01ffc9a7000000000000000000000000000000000000000000000000000000007bffffffffffffffffffffffffffffffffffffffffffffffffffffffff1916827bffffffffffffffffffffffffffffffffffffffffffffffffffffffff1916149050919050565b6106b98282610481565b61078b57600160008084815260200190815260200160002060000160008373ffffffffffffffffffffffffffffffffffffffff1673ffffffffffffffffffffffffffffffffffffffff16815260200190815260200160002060006101000a81548160ff02191690831515021790555061073061078f565b73ffffffffffffffffffffffffffffffffffffffff168173ffffffffffffffffffffffffffffffffffffffff16837f2f8788117e7eff1d82e926ec794901d17c78024a50270940304540a733656f0d60405160405180910390a45b5050565b600033905090565b6107a18282610481565b1561087457600080600084815260200190815260200160002060000160008373ffffffffffffffffffffffffffffffffffffffff1673ffffffffffffffffffffffffffffffffffffffff16815260200190815260200160002060006101000a81548160ff02191690831515021790555061081961078f565b73ffffffffffffffffffffffffffffffffffffffff168173ffffffffffffffffffffffffffffffffffffffff16837ff6391f5c32d9c69d2a47ea670b442974b53935d1edc7fd64eb21e047a839171b60405160405180910390a45b5050565b60006108a37f00000000000000000000000000000000000000000000000000000000000000006109db565b905090565b60007fe870e9cffded00b0b933338bc23ae12648d8d2d4829802ab37a0908f14773b4d82189050919050565b60006108de610878565b610914576040517f4a74df9200000000000000000000000000000000000000000000000000000000815260040160405180910390fd5b61093d7f0000000000000000000000000000000000000000000000000000000000000000610a13565b905090565b61094c8282610481565b6109c35761095981610aca565b6109678360001c6020610af7565b6040516020016109789291906114ac565b6040516020818303038152906040526040517f08c379a00000000000000000000000000000000000000000000000000000000081526004016109ba91906114e6565b60405180910390fd5b5050565b6109d8816109d361078f565b610942565b50565b60008173ffffffffffffffffffffffffffffffffffffffff163373ffffffffffffffffffffffffffffffffffffffff16149050919050565b6000610a1e826109db565b610a54576040517f4a74df9200000000000000000000000000000000000000000000000000000000815260040160405180910390fd5b8173ffffffffffffffffffffffffffffffffffffffff16636e296e456040518163ffffffff1660e01b8152600401602060405180830381865afa158015610a9f573d6000803e3d6000fd5b505050506040513d601f19601f82011682018060405250810190610ac3919061151d565b9050919050565b6060610af08273ffffffffffffffffffffffffffffffffffffffff16601460ff16610af7565b9050919050565b606060006002836002610b0a9190611579565b610b1491906115d3565b67ffffffffffffffff811115610b2d57610b2c610e3b565b5b6040519080825280601f01601f191660200182016040528015610b5f5781602001600182028036833780820191505090505b5090507f300000000000000000000000000000000000000000000000000000000000000081600081518110610b9757610b96611349565b5b60200101907effffffffffffffffffffffffffffffffffffffffffffffffffffffffffffff1916908160001a9053507f780000000000000000000000000000000000000000000000000000000000000081600181518110610bfb57610bfa611349565b5b60200101907effffffffffffffffffffffffffffffffffffffffffffffffffffffffffffff1916908160001a90535060006001846002610c3b9190611579565b610c4591906115d3565b90505b6001811115610ce5577f3031323334353637383961626364656600000000000000000000000000000000600f861660108110610c8757610c86611349565b5b1a60f81b828281518110610c9e57610c9d611349565b5b60200101907effffffffffffffffffffffffffffffffffffffffffffffffffffffffffffff1916908160001a905350600485901c945080610cde90611629565b9050610c48565b5060008414610d29576040517f08c379a0000000000000000000000000000000000000000000000000000000008152600401610d209061169e565b60405180910390fd5b8091505092915050565b828054610d3f906113a7565b90600052602060002090601f016020900481019282610d615760008555610da8565b82601f10610d7a57805160ff1916838001178555610da8565b82800160010185558215610da8579182015b82811115610da7578251825591602001919060010190610d8c565b5b509050610db59190610db9565b5090565b5b80821115610dd2576000816000905550600101610dba565b5090565b6000604051905090565b600080fd5b600080fd5b6000819050919050565b610dfd81610dea565b8114610e0857600080fd5b50565b600081359050610e1a81610df4565b92915050565b600080fd5b600080fd5b6000601f19601f8301169050919050565b7f4e487b7100000000000000000000000000000000000000000000000000000000600052604160045260246000fd5b610e7382610e2a565b810181811067ffffffffffffffff82111715610e9257610e91610e3b565b5b80604052505050565b6000610ea5610dd6565b9050610eb18282610e6a565b919050565b600067ffffffffffffffff821115610ed157610ed0610e3b565b5b610eda82610e2a565b9050602081019050919050565b82818337600083830152505050565b6000610f09610f0484610eb6565b610e9b565b905082815260208101848484011115610f2557610f24610e25565b5b610f30848285610ee7565b509392505050565b600082601f830112610f4d57610f4c610e20565b5b8135610f5d848260208601610ef6565b91505092915050565b60008060408385031215610f7d57610f7c610de0565b5b6000610f8b85828601610e0b565b925050602083013567ffffffffffffffff811115610fac57610fab610de5565b5b610fb885828601610f38565b9150509250929050565b610fcb81610dea565b82525050565b6000602082019050610fe66000830184610fc2565b92915050565b60007fffffffff0000000000000000000000000000000000000000000000000000000082169050919050565b61102181610fec565b811461102c57600080fd5b50565b60008135905061103e81611018565b92915050565b60006020828403121561105a57611059610de0565b5b60006110688482850161102f565b91505092915050565b60008115159050919050565b61108681611071565b82525050565b60006020820190506110a1600083018461107d565b92915050565b6000819050919050565b6110ba816110a7565b82525050565b60006020820190506110d560008301846110b1565b92915050565b6110e4816110a7565b81146110ef57600080fd5b50565b600081359050611101816110db565b92915050565b60006020828403121561111d5761111c610de0565b5b600061112b848285016110f2565b91505092915050565b600073ffffffffffffffffffffffffffffffffffffffff82169050919050565b600061115f82611134565b9050919050565b61116f81611154565b811461117a57600080fd5b50565b60008135905061118c81611166565b92915050565b600080604083850312156111a9576111a8610de0565b5b60006111b7858286016110f2565b92505060206111c88582860161117d565b9150509250929050565b6000602082840312156111e8576111e7610de0565b5b60006111f684828501610e0b565b91505092915050565b600081519050919050565b600082825260208201905092915050565b60005b8381101561123957808201518184015260208101905061121e565b83811115611248576000848401525b50505050565b6000611259826111ff565b611263818561120a565b935061127381856020860161121b565b61127c81610e2a565b840191505092915050565b600060408201905061129c6000830185610fc2565b81810360208301526112ae818461124e565b90509392505050565b7f416363657373436f6e74726f6c3a2063616e206f6e6c792072656e6f756e636560008201527f20726f6c657320666f722073656c660000000000000000000000000000000000602082015250565b6000611313602f8361120a565b915061131e826112b7565b604082019050919050565b6000602082019050818103600083015261134281611306565b9050919050565b7f4e487b7100000000000000000000000000000000000000000000000000000000600052603260045260246000fd5b7f4e487b7100000000000000000000000000000000000000000000000000000000600052602260045260246000fd5b600060028204905060018216806113bf57607f821691505b6020821081036113d2576113d1611378565b5b50919050565b600081905092915050565b7f416363657373436f6e74726f6c3a206163636f756e7420000000000000000000600082015250565b60006114196017836113d8565b9150611424826113e3565b601782019050919050565b600061143a826111ff565b61144481856113d8565b935061145481856020860161121b565b80840191505092915050565b7f206973206d697373696e6720726f6c6520000000000000000000000000000000600082015250565b60006114966011836113d8565b91506114a182611460565b601182019050919050565b60006114b78261140c565b91506114c3828561142f565b91506114ce82611489565b91506114da828461142f565b91508190509392505050565b60006020820190508181036000830152611500818461124e565b905092915050565b60008151905061151781611166565b92915050565b60006020828403121561153357611532610de0565b5b600061154184828501611508565b91505092915050565b7f4e487b7100000000000000000000000000000000000000000000000000000000600052601160045260246000fd5b600061158482610dea565b915061158f83610dea565b9250817fffffffffffffffffffffffffffffffffffffffffffffffffffffffffffffffff04831182151516156115c8576115c761154a565b5b828202905092915050565b60006115de82610dea565b91506115e983610dea565b9250827fffffffffffffffffffffffffffffffffffffffffffffffffffffffffffffffff0382111561161e5761161d61154a565b5b828201905092915050565b600061163482610dea565b9150600082036116475761164661154a565b5b600182039050919050565b7f537472696e67733a20686578206c656e67746820696e73756666696369656e74600082015250565b600061168860208361120a565b915061169382611652565b602082019050919050565b600060208201905081810360008301526116b78161167b565b905091905056fea2646970667358221220abc86a7b2e8229364a6acfc98d3ce860a991f3ed9e7860f5ace83af8b6a6ce9b64736f6c634300080d0033",
  "immutableReferences": {
    "3484": [
      {
        "length": 32,
        "start": 2175
      },
      {
        "length": 32,
        "start": 2329
      }
    ]
  },
  "source": "// SPDX-License-Identifier: MIT\r\npragma solidity ^0.8.13;\r\n\r\nimport {AccessControlCrossChainOptimism} from \"./lib/AccessControlCrossChainOptimism.sol\";\r\nimport {ISupplierInvoiceDocument} from \"./interfaces/ISupplierInvoiceDocument.sol\";\r\n\r\ncontract SupplierInvoiceDocument is ISupplierInvoiceDocument, AccessControlCrossChainOptimism {\r\n\r\n  bytes32 public constant OWNER = keccak256(\"OWNER\");\r\n\r\n  uint256[] private invoices;\r\n  string[] private documentUrls;\r\n\r\n  event Created(uint256 indexed _id);\r\n\r\n  constructor(address crossChainMessenger) AccessControlCrossChainOptimism(crossChainMessenger){\r\n    _grantRole(OWNER, msg.sender);\r\n  }\r\n\r\n  function create(\r\n    uint256 _invoiceId,\r\n    string memory _documentUrl\r\n  )\r\n  public onlyRole(OWNER)\r\n  returns (uint256 supplierInvoiceDocumentId){\r\n    uint256 id = invoices.length;\r\n    invoices.push(_invoiceId);\r\n    documentUrls.push(_documentUrl);\r\n    emit Created(id);\r\n    return id;\r\n  }\r\n\r\n  function get(uint256 id)\r\n  public view\r\n  returns (uint256 invoiceId, string memory documentUrl) {\r\n    return (invoices[id], documentUrls[id]);\r\n  }\r\n}\r\n",
  "sourcePath": "C:\\Users\\tjhar\\Enkainos\\platform-contracts\\contracts\\SupplierInvoiceDocument.sol",
  "compiler": {
    "name": "solc",
    "version": "0.8.13+commit.abaa5c0e.Emscripten.clang"
  },
  "schemaVersion": "3.4.13",
  "updatedAt": "2023-07-08T16:00:24.864Z",
  "networkType": "ethereum",
  "devdoc": {
    "kind": "dev",
    "methods": {
      "getRoleAdmin(bytes32)": {
        "details": "Returns the admin role that controls `role`. See {grantRole} and {revokeRole}. To change a role's admin, use {_setRoleAdmin}."
      },
      "grantRole(bytes32,address)": {
        "details": "Grants `role` to `account`. If `account` had not been already granted `role`, emits a {RoleGranted} event. Requirements: - the caller must have ``role``'s admin role. May emit a {RoleGranted} event."
      },
      "hasRole(bytes32,address)": {
        "details": "Returns `true` if `account` has been granted `role`."
      },
      "renounceRole(bytes32,address)": {
        "details": "Revokes `role` from the calling account. Roles are often managed via {grantRole} and {revokeRole}: this function's purpose is to provide a mechanism for accounts to lose their privileges if they are compromised (such as when a trusted device is misplaced). If the calling account had been revoked `role`, emits a {RoleRevoked} event. Requirements: - the caller must be `account`. May emit a {RoleRevoked} event."
      },
      "revokeRole(bytes32,address)": {
        "details": "Revokes `role` from `account`. If `account` had been granted `role`, emits a {RoleRevoked} event. Requirements: - the caller must have ``role``'s admin role. May emit a {RoleRevoked} event."
      },
      "supportsInterface(bytes4)": {
        "details": "See {IERC165-supportsInterface}."
      }
    },
    "version": 1
  },
  "userdoc": {
    "kind": "user",
    "methods": {},
    "version": 1
  }
}